{
  "_format": "hh-sol-artifact-1",
  "contractName": "NftStore",
  "sourceName": "contracts/NftStore.sol",
  "abi": [
    {
      "inputs": [
        {
          "internalType": "address",
          "name": "nftAddress",
          "type": "address"
        },
        {
          "internalType": "uint256",
          "name": "tokenId",
          "type": "uint256"
        }
      ],
      "name": "AlreadyListed",
      "type": "error"
    },
    {
      "inputs": [],
      "name": "NoProceeds",
      "type": "error"
    },
    {
      "inputs": [],
      "name": "NotApprovedForMarketplace",
      "type": "error"
    },
    {
      "inputs": [
        {
          "internalType": "address",
          "name": "nftAddress",
          "type": "address"
        },
        {
          "internalType": "uint256",
          "name": "tokenId",
          "type": "uint256"
        }
      ],
      "name": "NotListed",
      "type": "error"
    },
    {
      "inputs": [],
      "name": "NotOwner",
      "type": "error"
    },
    {
      "inputs": [],
      "name": "PriceMustBeAboveZero",
      "type": "error"
    },
    {
      "inputs": [
        {
          "internalType": "address",
          "name": "nftAddress",
          "type": "address"
        },
        {
          "internalType": "uint256",
          "name": "tokenId",
          "type": "uint256"
        },
        {
          "internalType": "uint256",
          "name": "price",
          "type": "uint256"
        }
      ],
      "name": "PriceNotMet",
      "type": "error"
    },
    {
      "anonymous": false,
      "inputs": [
        {
          "indexed": true,
          "internalType": "address",
          "name": "buyer",
          "type": "address"
        },
        {
          "indexed": true,
          "internalType": "address",
          "name": "nftAddress",
          "type": "address"
        },
        {
          "indexed": true,
          "internalType": "uint256",
          "name": "tokenId",
          "type": "uint256"
        },
        {
          "indexed": false,
          "internalType": "uint256",
          "name": "price",
          "type": "uint256"
        }
      ],
      "name": "ItemBought",
      "type": "event"
    },
    {
      "anonymous": false,
      "inputs": [
        {
          "indexed": true,
          "internalType": "address",
          "name": "seller",
          "type": "address"
        },
        {
          "indexed": true,
          "internalType": "address",
          "name": "nftAddress",
          "type": "address"
        },
        {
          "indexed": true,
          "internalType": "uint256",
          "name": "tokenId",
          "type": "uint256"
        }
      ],
      "name": "ItemCanceled",
      "type": "event"
    },
    {
      "anonymous": false,
      "inputs": [
        {
          "indexed": true,
          "internalType": "address",
          "name": "seller",
          "type": "address"
        },
        {
          "indexed": true,
          "internalType": "address",
          "name": "nftAddress",
          "type": "address"
        },
        {
          "indexed": true,
          "internalType": "uint256",
          "name": "tokenId",
          "type": "uint256"
        },
        {
          "indexed": false,
          "internalType": "uint256",
          "name": "price",
          "type": "uint256"
        },
        {
          "indexed": false,
          "internalType": "uint256",
          "name": "percentage",
          "type": "uint256"
        }
      ],
      "name": "ItemListed",
      "type": "event"
    },
    {
      "inputs": [
        {
          "internalType": "address",
          "name": "nftAddress",
          "type": "address"
        },
        {
          "internalType": "uint256",
          "name": "tokenId",
          "type": "uint256"
        },
        {
          "internalType": "address",
          "name": "refferalAddress",
          "type": "address"
        }
      ],
      "name": "buyItem",
      "outputs": [],
      "stateMutability": "payable",
      "type": "function"
    },
    {
      "inputs": [
        {
          "internalType": "address",
          "name": "nftAddress",
          "type": "address"
        },
        {
          "internalType": "uint256",
          "name": "tokenId",
          "type": "uint256"
        }
      ],
      "name": "cancelListing",
      "outputs": [],
      "stateMutability": "nonpayable",
      "type": "function"
    },
    {
      "inputs": [
        {
          "internalType": "address",
          "name": "nftAddress",
          "type": "address"
        },
        {
          "internalType": "uint256",
          "name": "tokenId",
          "type": "uint256"
        }
      ],
      "name": "getListing",
      "outputs": [
        {
          "components": [
            {
              "internalType": "uint256",
              "name": "price",
              "type": "uint256"
            },
            {
              "internalType": "address",
              "name": "seller",
              "type": "address"
            }
          ],
          "internalType": "struct NftStore.Listing",
          "name": "",
          "type": "tuple"
        }
      ],
      "stateMutability": "view",
      "type": "function"
    },
    {
      "inputs": [
        {
          "internalType": "address",
          "name": "seller",
          "type": "address"
        }
      ],
      "name": "getProceeds",
      "outputs": [
        {
          "internalType": "uint256",
          "name": "",
          "type": "uint256"
        }
      ],
      "stateMutability": "view",
      "type": "function"
    },
    {
      "inputs": [
        {
          "internalType": "address",
          "name": "nftAddress",
          "type": "address"
        },
        {
          "internalType": "uint256",
          "name": "tokenId",
          "type": "uint256"
        },
        {
          "internalType": "uint256",
          "name": "price",
          "type": "uint256"
        },
        {
          "internalType": "uint256",
          "name": "_percentage",
          "type": "uint256"
        }
      ],
      "name": "listItem",
      "outputs": [],
      "stateMutability": "nonpayable",
      "type": "function"
    },
    {
      "inputs": [
        {
          "internalType": "uint256",
          "name": "_percentage",
          "type": "uint256"
        },
        {
          "internalType": "address",
          "name": "nftAddress",
          "type": "address"
        },
        {
          "internalType": "uint256",
          "name": "tokenId",
          "type": "uint256"
        }
      ],
      "name": "setReferralPercentage",
      "outputs": [],
      "stateMutability": "nonpayable",
      "type": "function"
    },
    {
      "inputs": [
        {
          "internalType": "address",
          "name": "nftAddress",
          "type": "address"
        },
        {
          "internalType": "uint256",
          "name": "tokenId",
          "type": "uint256"
        },
        {
          "internalType": "uint256",
          "name": "newPrice",
          "type": "uint256"
        },
        {
          "internalType": "uint256",
          "name": "_percentage",
          "type": "uint256"
        }
      ],
      "name": "updateListing",
      "outputs": [],
      "stateMutability": "nonpayable",
      "type": "function"
    },
    {
      "inputs": [],
      "name": "withdrawProceeds",
      "outputs": [],
      "stateMutability": "nonpayable",
      "type": "function"
    }
  ],
  "bytecode": "0x608060405234801561001057600080fd5b5060016000819055506123f6806100286000396000f3fe60806040526004361061007b5760003560e01c80639c4bbb051161004e5780639c4bbb051461012d578063b2ddee0614610156578063bcb143ef1461017f578063d9964757146101a85761007b565b8063259ca3651461008057806330cfeda91461009c57806388700d1c146100d95780639038e69314610116575b600080fd5b61009a60048036038101906100959190611cef565b6101d1565b005b3480156100a857600080fd5b506100c360048036038101906100be9190611c55565b610845565b6040516100d091906120ae565b60405180910390f35b3480156100e557600080fd5b5061010060048036038101906100fb9190611caf565b61088e565b60405161010d9190612093565b60405180910390f35b34801561012257600080fd5b5061012b610959565b005b34801561013957600080fd5b50610154600480360381019061014f9190611da9565b610acc565b005b34801561016257600080fd5b5061017d60048036038101906101789190611caf565b610c14565b005b34801561018b57600080fd5b506101a660048036038101906101a19190611d42565b610fc4565b005b3480156101b457600080fd5b506101cf60048036038101906101ca9190611d42565b61157d565b005b82826102126040518060400160405280600981526020017f746f6b656e49643a200000000000000000000000000000000000000000000000815250826119e6565b6102516040518060400160405280600c81526020017f6e6674416464726573733a20000000000000000000000000000000000000000081525083611a82565b6000600160008473ffffffffffffffffffffffffffffffffffffffff1673ffffffffffffffffffffffffffffffffffffffff1681526020019081526020016000206000838152602001908152602001600020604051806040016040529081600082015481526020016001820160009054906101000a900473ffffffffffffffffffffffffffffffffffffffff1673ffffffffffffffffffffffffffffffffffffffff1673ffffffffffffffffffffffffffffffffffffffff168152505090506103536040518060400160405280601081526020017f6c697374696e672e7072696365203a200000000000000000000000000000000081525082600001516119e6565b600081600001511161039e5782826040517f6831488c000000000000000000000000000000000000000000000000000000008152600401610395929190611f55565b60405180910390fd5b600260005414156103e4576040517f08c379a00000000000000000000000000000000000000000000000000000000081526004016103db90612073565b60405180910390fd5b60026000819055506000600160008873ffffffffffffffffffffffffffffffffffffffff1673ffffffffffffffffffffffffffffffffffffffff1681526020019081526020016000206000878152602001908152602001600020604051806040016040529081600082015481526020016001820160009054906101000a900473ffffffffffffffffffffffffffffffffffffffff1673ffffffffffffffffffffffffffffffffffffffff1673ffffffffffffffffffffffffffffffffffffffff1681525050905080600001513410156104fc57868682600001516040517f7c9345650000000000000000000000000000000000000000000000000000000081526004016104f393929190611f7e565b60405180910390fd5b6000600360008973ffffffffffffffffffffffffffffffffffffffff1673ffffffffffffffffffffffffffffffffffffffff1681526020019081526020016000205490506105636040518060600160405280602c8152602001612395602c91398288611b1e565b600080821180156105a15750600073ffffffffffffffffffffffffffffffffffffffff168773ffffffffffffffffffffffffffffffffffffffff1614155b1561066e57606482346105b491906121a0565b6105be919061216f565b905060008773ffffffffffffffffffffffffffffffffffffffff16826040516105e690611f09565b60006040518083038185875af1925050503d8060008114610623576040519150601f19603f3d011682016040523d82523d6000602084013e610628565b606091505b505090508061066c576040517f08c379a000000000000000000000000000000000000000000000000000000000815260040161066390612053565b60405180910390fd5b505b803461067a91906121fa565b60026000856020015173ffffffffffffffffffffffffffffffffffffffff1673ffffffffffffffffffffffffffffffffffffffff16815260200190815260200160002060008282546106cc9190612119565b92505081905550600160008a73ffffffffffffffffffffffffffffffffffffffff1673ffffffffffffffffffffffffffffffffffffffff16815260200190815260200160002060008981526020019081526020016000206000808201600090556001820160006101000a81549073ffffffffffffffffffffffffffffffffffffffff021916905550508873ffffffffffffffffffffffffffffffffffffffff166342842e0e8460200151338b6040518463ffffffff1660e01b815260040161079693929190611f1e565b600060405180830381600087803b1580156107b057600080fd5b505af11580156107c4573d6000803e3d6000fd5b50505050878973ffffffffffffffffffffffffffffffffffffffff163373ffffffffffffffffffffffffffffffffffffffff167f263223b1dd81e51054a4e6f791d45a4a1ddb4aadcd93a2dfd892615c3fdac187866000015160405161082a91906120ae565b60405180910390a45050506001600081905550505050505050565b6000600260008373ffffffffffffffffffffffffffffffffffffffff1673ffffffffffffffffffffffffffffffffffffffff168152602001908152602001600020549050919050565b610896611be6565b600160008473ffffffffffffffffffffffffffffffffffffffff1673ffffffffffffffffffffffffffffffffffffffff1681526020019081526020016000206000838152602001908152602001600020604051806040016040529081600082015481526020016001820160009054906101000a900473ffffffffffffffffffffffffffffffffffffffff1673ffffffffffffffffffffffffffffffffffffffff1673ffffffffffffffffffffffffffffffffffffffff1681525050905092915050565b6000600260003373ffffffffffffffffffffffffffffffffffffffff1673ffffffffffffffffffffffffffffffffffffffff168152602001908152602001600020549050600081116109d7576040517fc4d8fa8700000000000000000000000000000000000000000000000000000000815260040160405180910390fd5b6000600260003373ffffffffffffffffffffffffffffffffffffffff1673ffffffffffffffffffffffffffffffffffffffff1681526020019081526020016000208190555060003373ffffffffffffffffffffffffffffffffffffffff1682604051610a4290611f09565b60006040518083038185875af1925050503d8060008114610a7f576040519150601f19603f3d011682016040523d82523d6000602084013e610a84565b606091505b5050905080610ac8576040517f08c379a0000000000000000000000000000000000000000000000000000000008152600401610abf90612053565b60405180910390fd5b5050565b818133600083905060008173ffffffffffffffffffffffffffffffffffffffff16636352211e856040518263ffffffff1660e01b8152600401610b0f91906120ae565b60206040518083038186803b158015610b2757600080fd5b505afa158015610b3b573d6000803e3d6000fd5b505050506040513d601f19601f82011682018060405250810190610b5f9190611c82565b90508073ffffffffffffffffffffffffffffffffffffffff168373ffffffffffffffffffffffffffffffffffffffff1614610bc6576040517f30cd747100000000000000000000000000000000000000000000000000000000815260040160405180910390fd5b87600360008973ffffffffffffffffffffffffffffffffffffffff1673ffffffffffffffffffffffffffffffffffffffff168152602001908152602001600020819055505050505050505050565b818133600083905060008173ffffffffffffffffffffffffffffffffffffffff16636352211e856040518263ffffffff1660e01b8152600401610c5791906120ae565b60206040518083038186803b158015610c6f57600080fd5b505afa158015610c83573d6000803e3d6000fd5b505050506040513d601f19601f82011682018060405250810190610ca79190611c82565b90508073ffffffffffffffffffffffffffffffffffffffff168373ffffffffffffffffffffffffffffffffffffffff1614610d0e576040517f30cd747100000000000000000000000000000000000000000000000000000000815260040160405180910390fd5b8686610d4f6040518060400160405280600981526020017f746f6b656e49643a200000000000000000000000000000000000000000000000815250826119e6565b610d8e6040518060400160405280600c81526020017f6e6674416464726573733a20000000000000000000000000000000000000000081525083611a82565b6000600160008473ffffffffffffffffffffffffffffffffffffffff1673ffffffffffffffffffffffffffffffffffffffff1681526020019081526020016000206000838152602001908152602001600020604051806040016040529081600082015481526020016001820160009054906101000a900473ffffffffffffffffffffffffffffffffffffffff1673ffffffffffffffffffffffffffffffffffffffff1673ffffffffffffffffffffffffffffffffffffffff16815250509050610e906040518060400160405280601081526020017f6c697374696e672e7072696365203a200000000000000000000000000000000081525082600001516119e6565b6000816000015111610edb5782826040517f6831488c000000000000000000000000000000000000000000000000000000008152600401610ed2929190611f55565b60405180910390fd5b600160008b73ffffffffffffffffffffffffffffffffffffffff1673ffffffffffffffffffffffffffffffffffffffff16815260200190815260200160002060008a81526020019081526020016000206000808201600090556001820160006101000a81549073ffffffffffffffffffffffffffffffffffffffff02191690555050888a73ffffffffffffffffffffffffffffffffffffffff163373ffffffffffffffffffffffffffffffffffffffff167f9ba1a3cb55ce8d63d072a886f94d2a744f50cddf82128e897d0661f5ec62315860405160405180910390a450505050505050505050565b83836000600160008473ffffffffffffffffffffffffffffffffffffffff1673ffffffffffffffffffffffffffffffffffffffff1681526020019081526020016000206000838152602001908152602001600020604051806040016040529081600082015481526020016001820160009054906101000a900473ffffffffffffffffffffffffffffffffffffffff1673ffffffffffffffffffffffffffffffffffffffff1673ffffffffffffffffffffffffffffffffffffffff168152505090506000816000015111156110d15782826040517f4a5568d50000000000000000000000000000000000000000000000000000000081526004016110c8929190611f55565b60405180910390fd5b868633600083905060008173ffffffffffffffffffffffffffffffffffffffff16636352211e856040518263ffffffff1660e01b815260040161111491906120ae565b60206040518083038186803b15801561112c57600080fd5b505afa158015611140573d6000803e3d6000fd5b505050506040513d601f19601f820116820180604052508101906111649190611c82565b90508073ffffffffffffffffffffffffffffffffffffffff168373ffffffffffffffffffffffffffffffffffffffff16146111cb576040517f30cd747100000000000000000000000000000000000000000000000000000000815260040160405180910390fd5b61120a6040518060400160405280600981526020017f746f6b656e49643a2000000000000000000000000000000000000000000000008152508c6119e6565b6112496040518060400160405280600c81526020017f6e6674416464726573733a2000000000000000000000000000000000000000008152508d611a82565b6112886040518060400160405280600781526020017f70726963653a20000000000000000000000000000000000000000000000000008152508b6119e6565b6112c76040518060400160405280600d81526020017f5f70657263656e746167653a20000000000000000000000000000000000000008152508a6119e6565b60008a11611301576040517fe1abbfc500000000000000000000000000000000000000000000000000000000815260040160405180910390fd5b60008c90503073ffffffffffffffffffffffffffffffffffffffff168173ffffffffffffffffffffffffffffffffffffffff1663081812fc8e6040518263ffffffff1660e01b815260040161135691906120ae565b60206040518083038186803b15801561136e57600080fd5b505afa158015611382573d6000803e3d6000fd5b505050506040513d601f19601f820116820180604052508101906113a69190611c82565b73ffffffffffffffffffffffffffffffffffffffff16146113f3576040517f4be3a2c500000000000000000000000000000000000000000000000000000000815260040160405180910390fd5b60405180604001604052808c81526020013373ffffffffffffffffffffffffffffffffffffffff16815250600160008f73ffffffffffffffffffffffffffffffffffffffff1673ffffffffffffffffffffffffffffffffffffffff16815260200190815260200160002060008e81526020019081526020016000206000820151816000015560208201518160010160006101000a81548173ffffffffffffffffffffffffffffffffffffffff021916908373ffffffffffffffffffffffffffffffffffffffff16021790555090505089600360008f73ffffffffffffffffffffffffffffffffffffffff1673ffffffffffffffffffffffffffffffffffffffff168152602001908152602001600020819055508b8d73ffffffffffffffffffffffffffffffffffffffff163373ffffffffffffffffffffffffffffffffffffffff167f91623fbd639d8d503fe2e77aab334b032313685f1b28c84d838c4b647b1f5d9d8e8e6040516115669291906120c9565b60405180910390a450505050505050505050505050565b83836115be6040518060400160405280600981526020017f746f6b656e49643a200000000000000000000000000000000000000000000000815250826119e6565b6115fd6040518060400160405280600c81526020017f6e6674416464726573733a20000000000000000000000000000000000000000081525083611a82565b6000600160008473ffffffffffffffffffffffffffffffffffffffff1673ffffffffffffffffffffffffffffffffffffffff1681526020019081526020016000206000838152602001908152602001600020604051806040016040529081600082015481526020016001820160009054906101000a900473ffffffffffffffffffffffffffffffffffffffff1673ffffffffffffffffffffffffffffffffffffffff1673ffffffffffffffffffffffffffffffffffffffff168152505090506116ff6040518060400160405280601081526020017f6c697374696e672e7072696365203a200000000000000000000000000000000081525082600001516119e6565b600081600001511161174a5782826040517f6831488c000000000000000000000000000000000000000000000000000000008152600401611741929190611f55565b60405180910390fd5b60026000541415611790576040517f08c379a000000000000000000000000000000000000000000000000000000000815260040161178790612073565b60405180910390fd5b6002600081905550868633600083905060008173ffffffffffffffffffffffffffffffffffffffff16636352211e856040518263ffffffff1660e01b81526004016117db91906120ae565b60206040518083038186803b1580156117f357600080fd5b505afa158015611807573d6000803e3d6000fd5b505050506040513d601f19601f8201168201806040525081019061182b9190611c82565b90508073ffffffffffffffffffffffffffffffffffffffff168373ffffffffffffffffffffffffffffffffffffffff1614611892576040517f30cd747100000000000000000000000000000000000000000000000000000000815260040160405180910390fd5b60008a116118cc576040517fe1abbfc500000000000000000000000000000000000000000000000000000000815260040160405180910390fd5b88600360008e73ffffffffffffffffffffffffffffffffffffffff1673ffffffffffffffffffffffffffffffffffffffff1681526020019081526020016000208190555089600160008e73ffffffffffffffffffffffffffffffffffffffff1673ffffffffffffffffffffffffffffffffffffffff16815260200190815260200160002060008d8152602001908152602001600020600001819055508a8c73ffffffffffffffffffffffffffffffffffffffff163373ffffffffffffffffffffffffffffffffffffffff167f91623fbd639d8d503fe2e77aab334b032313685f1b28c84d838c4b647b1f5d9d8d8d6040516119c89291906120c9565b60405180910390a45050505050600160008190555050505050505050565b611a7e82826040516024016119fc929190611fe5565b6040516020818303038152906040527f9710a9d0000000000000000000000000000000000000000000000000000000007bffffffffffffffffffffffffffffffffffffffffffffffffffffffff19166020820180517bffffffffffffffffffffffffffffffffffffffffffffffffffffffff8381831617835250505050611bbd565b5050565b611b1a8282604051602401611a98929190611fb5565b6040516020818303038152906040527f319af333000000000000000000000000000000000000000000000000000000007bffffffffffffffffffffffffffffffffffffffffffffffffffffffff19166020820180517bffffffffffffffffffffffffffffffffffffffffffffffffffffffff8381831617835250505050611bbd565b5050565b611bb8838383604051602401611b3693929190612015565b6040516020818303038152906040527fe3849f79000000000000000000000000000000000000000000000000000000007bffffffffffffffffffffffffffffffffffffffffffffffffffffffff19166020820180517bffffffffffffffffffffffffffffffffffffffffffffffffffffffff8381831617835250505050611bbd565b505050565b60008151905060006a636f6e736f6c652e6c6f679050602083016000808483855afa5050505050565b604051806040016040528060008152602001600073ffffffffffffffffffffffffffffffffffffffff1681525090565b600081359050611c2581612366565b92915050565b600081519050611c3a81612366565b92915050565b600081359050611c4f8161237d565b92915050565b600060208284031215611c6b57611c6a6122fb565b5b6000611c7984828501611c16565b91505092915050565b600060208284031215611c9857611c976122fb565b5b6000611ca684828501611c2b565b91505092915050565b60008060408385031215611cc657611cc56122fb565b5b6000611cd485828601611c16565b9250506020611ce585828601611c40565b9150509250929050565b600080600060608486031215611d0857611d076122fb565b5b6000611d1686828701611c16565b9350506020611d2786828701611c40565b9250506040611d3886828701611c16565b9150509250925092565b60008060008060808587031215611d5c57611d5b6122fb565b5b6000611d6a87828801611c16565b9450506020611d7b87828801611c40565b9350506040611d8c87828801611c40565b9250506060611d9d87828801611c40565b91505092959194509250565b600080600060608486031215611dc257611dc16122fb565b5b6000611dd086828701611c40565b9350506020611de186828701611c16565b9250506040611df286828701611c40565b9150509250925092565b611e058161222e565b82525050565b611e148161222e565b82525050565b6000611e25826120f2565b611e2f8185612108565b9350611e3f81856020860161226a565b611e4881612300565b840191505092915050565b6000611e60600f83612108565b9150611e6b82612311565b602082019050919050565b6000611e836000836120fd565b9150611e8e8261233a565b600082019050919050565b6000611ea6601f83612108565b9150611eb18261233d565b602082019050919050565b604082016000820151611ed26000850182611eeb565b506020820151611ee56020850182611dfc565b50505050565b611ef481612260565b82525050565b611f0381612260565b82525050565b6000611f1482611e76565b9150819050919050565b6000606082019050611f336000830186611e0b565b611f406020830185611e0b565b611f4d6040830184611efa565b949350505050565b6000604082019050611f6a6000830185611e0b565b611f776020830184611efa565b9392505050565b6000606082019050611f936000830186611e0b565b611fa06020830185611efa565b611fad6040830184611efa565b949350505050565b60006040820190508181036000830152611fcf8185611e1a565b9050611fde6020830184611e0b565b9392505050565b60006040820190508181036000830152611fff8185611e1a565b905061200e6020830184611efa565b9392505050565b6000606082019050818103600083015261202f8186611e1a565b905061203e6020830185611efa565b61204b6040830184611e0b565b949350505050565b6000602082019050818103600083015261206c81611e53565b9050919050565b6000602082019050818103600083015261208c81611e99565b9050919050565b60006040820190506120a86000830184611ebc565b92915050565b60006020820190506120c36000830184611efa565b92915050565b60006040820190506120de6000830185611efa565b6120eb6020830184611efa565b9392505050565b600081519050919050565b600081905092915050565b600082825260208201905092915050565b600061212482612260565b915061212f83612260565b9250827fffffffffffffffffffffffffffffffffffffffffffffffffffffffffffffffff038211156121645761216361229d565b5b828201905092915050565b600061217a82612260565b915061218583612260565b925082612195576121946122cc565b5b828204905092915050565b60006121ab82612260565b91506121b683612260565b9250817fffffffffffffffffffffffffffffffffffffffffffffffffffffffffffffffff04831182151516156121ef576121ee61229d565b5b828202905092915050565b600061220582612260565b915061221083612260565b9250828210156122235761222261229d565b5b828203905092915050565b600061223982612240565b9050919050565b600073ffffffffffffffffffffffffffffffffffffffff82169050919050565b6000819050919050565b60005b8381101561228857808201518184015260208101905061226d565b83811115612297576000848401525b50505050565b7f4e487b7100000000000000000000000000000000000000000000000000000000600052601160045260246000fd5b7f4e487b7100000000000000000000000000000000000000000000000000000000600052601260045260246000fd5b600080fd5b6000601f19601f8301169050919050565b7f5472616e73666572206661696c65640000000000000000000000000000000000600082015250565b50565b7f5265656e7472616e637947756172643a207265656e7472616e742063616c6c00600082015250565b61236f8161222e565b811461237a57600080fd5b50565b61238681612260565b811461239157600080fd5b5056fe526566657272616c2050657263656e746167653a2025732c20526566666572616c2041646472657373202573a26469706673582212203cabffe4ae0bfa5ed4481ca98f6cbc28ea5dd5d647d838504f7aa577dcabaa8964736f6c63430008070033",
  "linkReferences": {},
  "deployedLinkReferences": {}
}