{
  "_format": "hh-sol-artifact-1",
  "contractName": "NftStore",
  "sourceName": "contracts/NftStore.sol",
  "abi": [
    {
      "inputs": [
        {
          "internalType": "address",
          "name": "nftAddress",
          "type": "address"
        },
        {
          "internalType": "uint256",
          "name": "tokenId",
          "type": "uint256"
        }
      ],
      "name": "AlreadyListed",
      "type": "error"
    },
    {
      "inputs": [],
      "name": "NoProceeds",
      "type": "error"
    },
    {
      "inputs": [],
      "name": "NotApprovedForMarketplace",
      "type": "error"
    },
    {
      "inputs": [
        {
          "internalType": "address",
          "name": "nftAddress",
          "type": "address"
        },
        {
          "internalType": "uint256",
          "name": "tokenId",
          "type": "uint256"
        }
      ],
      "name": "NotListed",
      "type": "error"
    },
    {
      "inputs": [],
      "name": "NotOwner",
      "type": "error"
    },
    {
      "inputs": [],
      "name": "PriceMustBeAboveZero",
      "type": "error"
    },
    {
      "inputs": [
        {
          "internalType": "address",
          "name": "nftAddress",
          "type": "address"
        },
        {
          "internalType": "uint256",
          "name": "tokenId",
          "type": "uint256"
        },
        {
          "internalType": "uint256",
          "name": "price",
          "type": "uint256"
        }
      ],
      "name": "PriceNotMet",
      "type": "error"
    },
    {
      "anonymous": false,
      "inputs": [
        {
          "indexed": true,
          "internalType": "address",
          "name": "buyer",
          "type": "address"
        },
        {
          "indexed": true,
          "internalType": "address",
          "name": "nftAddress",
          "type": "address"
        },
        {
          "indexed": true,
          "internalType": "uint256",
          "name": "tokenId",
          "type": "uint256"
        },
        {
          "indexed": false,
          "internalType": "uint256",
          "name": "price",
          "type": "uint256"
        }
      ],
      "name": "ItemBought",
      "type": "event"
    },
    {
      "anonymous": false,
      "inputs": [
        {
          "indexed": true,
          "internalType": "address",
          "name": "seller",
          "type": "address"
        },
        {
          "indexed": true,
          "internalType": "address",
          "name": "nftAddress",
          "type": "address"
        },
        {
          "indexed": true,
          "internalType": "uint256",
          "name": "tokenId",
          "type": "uint256"
        }
      ],
      "name": "ItemCanceled",
      "type": "event"
    },
    {
      "anonymous": false,
      "inputs": [
        {
          "indexed": true,
          "internalType": "address",
          "name": "seller",
          "type": "address"
        },
        {
          "indexed": true,
          "internalType": "address",
          "name": "nftAddress",
          "type": "address"
        },
        {
          "indexed": true,
          "internalType": "uint256",
          "name": "tokenId",
          "type": "uint256"
        },
        {
          "indexed": false,
          "internalType": "uint256",
          "name": "price",
          "type": "uint256"
        },
        {
          "indexed": false,
          "internalType": "uint256",
          "name": "percentage",
          "type": "uint256"
        }
      ],
      "name": "ItemListed",
      "type": "event"
    },
    {
      "inputs": [
        {
          "internalType": "address",
          "name": "nftAddress",
          "type": "address"
        },
        {
          "internalType": "uint256",
          "name": "tokenId",
          "type": "uint256"
        },
        {
          "internalType": "address",
          "name": "refferalAddress",
          "type": "address"
        }
      ],
      "name": "buyItem",
      "outputs": [],
      "stateMutability": "payable",
      "type": "function"
    },
    {
      "inputs": [
        {
          "internalType": "address",
          "name": "nftAddress",
          "type": "address"
        },
        {
          "internalType": "uint256",
          "name": "tokenId",
          "type": "uint256"
        }
      ],
      "name": "cancelListing",
      "outputs": [],
      "stateMutability": "nonpayable",
      "type": "function"
    },
    {
      "inputs": [],
      "name": "getAllListings",
      "outputs": [
        {
          "components": [
            {
              "internalType": "uint256",
              "name": "price",
              "type": "uint256"
            },
            {
              "internalType": "address",
              "name": "seller",
              "type": "address"
            }
          ],
          "internalType": "struct NftStore.Listing[]",
          "name": "",
          "type": "tuple[]"
        }
      ],
      "stateMutability": "view",
      "type": "function"
    },
    {
      "inputs": [
        {
          "internalType": "address",
          "name": "nftAddress",
          "type": "address"
        },
        {
          "internalType": "uint256",
          "name": "tokenId",
          "type": "uint256"
        }
      ],
      "name": "getListing",
      "outputs": [
        {
          "components": [
            {
              "internalType": "uint256",
              "name": "price",
              "type": "uint256"
            },
            {
              "internalType": "address",
              "name": "seller",
              "type": "address"
            }
          ],
          "internalType": "struct NftStore.Listing",
          "name": "",
          "type": "tuple"
        }
      ],
      "stateMutability": "view",
      "type": "function"
    },
    {
      "inputs": [
        {
          "internalType": "address",
          "name": "nftAddress",
          "type": "address"
        }
      ],
      "name": "getListings",
      "outputs": [
        {
          "components": [
            {
              "internalType": "uint256",
              "name": "price",
              "type": "uint256"
            },
            {
              "internalType": "address",
              "name": "seller",
              "type": "address"
            }
          ],
          "internalType": "struct NftStore.Listing[]",
          "name": "",
          "type": "tuple[]"
        }
      ],
      "stateMutability": "view",
      "type": "function"
    },
    {
      "inputs": [
        {
          "internalType": "address",
          "name": "seller",
          "type": "address"
        }
      ],
      "name": "getProceeds",
      "outputs": [
        {
          "internalType": "uint256",
          "name": "",
          "type": "uint256"
        }
      ],
      "stateMutability": "view",
      "type": "function"
    },
    {
      "inputs": [
        {
          "internalType": "address",
          "name": "nftAddress",
          "type": "address"
        },
        {
          "internalType": "uint256",
          "name": "tokenId",
          "type": "uint256"
        },
        {
          "internalType": "uint256",
          "name": "price",
          "type": "uint256"
        },
        {
          "internalType": "uint256",
          "name": "_percentage",
          "type": "uint256"
        }
      ],
      "name": "listItem",
      "outputs": [],
      "stateMutability": "nonpayable",
      "type": "function"
    },
    {
      "inputs": [
        {
          "internalType": "uint256",
          "name": "_percentage",
          "type": "uint256"
        },
        {
          "internalType": "address",
          "name": "nftAddress",
          "type": "address"
        },
        {
          "internalType": "uint256",
          "name": "tokenId",
          "type": "uint256"
        }
      ],
      "name": "setReferralPercentage",
      "outputs": [],
      "stateMutability": "nonpayable",
      "type": "function"
    },
    {
      "inputs": [
        {
          "internalType": "address",
          "name": "nftAddress",
          "type": "address"
        },
        {
          "internalType": "uint256",
          "name": "tokenId",
          "type": "uint256"
        },
        {
          "internalType": "uint256",
          "name": "newPrice",
          "type": "uint256"
        },
        {
          "internalType": "uint256",
          "name": "_percentage",
          "type": "uint256"
        }
      ],
      "name": "updateListing",
      "outputs": [],
      "stateMutability": "nonpayable",
      "type": "function"
    },
    {
      "inputs": [],
      "name": "withdrawProceeds",
      "outputs": [],
      "stateMutability": "nonpayable",
      "type": "function"
    }
  ],
  "bytecode": "0x608060405234801561001057600080fd5b506001600081905550612b54806100286000396000f3fe6080604052600436106100915760003560e01c8063ae73ccec11610059578063ae73ccec1461016c578063b2ddee0614610197578063bcb143ef146101c0578063cde8cd6e146101e9578063d99647571461022657610091565b8063259ca3651461009657806330cfeda9146100b257806388700d1c146100ef5780639038e6931461012c5780639c4bbb0514610143575b600080fd5b6100b060048036038101906100ab9190612227565b61024f565b005b3480156100be57600080fd5b506100d960048036038101906100d4919061218d565b610854565b6040516100e691906126f5565b60405180910390f35b3480156100fb57600080fd5b50610116600480360381019061011191906121e7565b61089d565b60405161012391906126da565b60405180910390f35b34801561013857600080fd5b50610141610a35565b005b34801561014f57600080fd5b5061016a6004803603810190610165919061230e565b610ba8565b005b34801561017857600080fd5b50610181610cf0565b60405161018e91906125da565b60405180910390f35b3480156101a357600080fd5b506101be60048036038101906101b991906121e7565b610fd8565b005b3480156101cc57600080fd5b506101e760048036038101906101e2919061227a565b61130a565b005b3480156101f557600080fd5b50610210600480360381019061020b919061218d565b6117c7565b60405161021d91906125da565b60405180910390f35b34801561023257600080fd5b5061024d6004803603810190610248919061227a565b611a7f565b005b82826000600160008473ffffffffffffffffffffffffffffffffffffffff1673ffffffffffffffffffffffffffffffffffffffff1681526020019081526020016000206000838152602001908152602001600020604051806040016040529081600082015481526020016001820160009054906101000a900473ffffffffffffffffffffffffffffffffffffffff1673ffffffffffffffffffffffffffffffffffffffff1673ffffffffffffffffffffffffffffffffffffffff168152505090506103536040518060400160405280601081526020017f6c697374696e672e7072696365203a20000000000000000000000000000000008152508260000151611e6a565b600081600001511161039e5782826040517f6831488c00000000000000000000000000000000000000000000000000000000815260040161039592919061257a565b60405180910390fd5b600260005414156103e4576040517f08c379a00000000000000000000000000000000000000000000000000000000081526004016103db906126ba565b60405180910390fd5b60026000819055506000600160008873ffffffffffffffffffffffffffffffffffffffff1673ffffffffffffffffffffffffffffffffffffffff1681526020019081526020016000206000878152602001908152602001600020604051806040016040529081600082015481526020016001820160009054906101000a900473ffffffffffffffffffffffffffffffffffffffff1673ffffffffffffffffffffffffffffffffffffffff1673ffffffffffffffffffffffffffffffffffffffff168152505090506104ba86826000015134611f06565b806000015134101561050b57868682600001516040517f7c934565000000000000000000000000000000000000000000000000000000008152600401610502939291906125a3565b60405180910390fd5b6000600360008973ffffffffffffffffffffffffffffffffffffffff1673ffffffffffffffffffffffffffffffffffffffff1681526020019081526020016000205490506105726040518060600160405280602c8152602001612af3602c91398288611fa5565b600080821180156105b05750600073ffffffffffffffffffffffffffffffffffffffff168773ffffffffffffffffffffffffffffffffffffffff1614155b1561067d57606482346105c39190612857565b6105cd9190612826565b905060008773ffffffffffffffffffffffffffffffffffffffff16826040516105f590612513565b60006040518083038185875af1925050503d8060008114610632576040519150601f19603f3d011682016040523d82523d6000602084013e610637565b606091505b505090508061067b576040517f08c379a00000000000000000000000000000000000000000000000000000000081526004016106729061269a565b60405180910390fd5b505b803461068991906128b1565b60026000856020015173ffffffffffffffffffffffffffffffffffffffff1673ffffffffffffffffffffffffffffffffffffffff16815260200190815260200160002060008282546106db91906127d0565b92505081905550600160008a73ffffffffffffffffffffffffffffffffffffffff1673ffffffffffffffffffffffffffffffffffffffff16815260200190815260200160002060008981526020019081526020016000206000808201600090556001820160006101000a81549073ffffffffffffffffffffffffffffffffffffffff021916905550508873ffffffffffffffffffffffffffffffffffffffff166342842e0e8460200151338b6040518463ffffffff1660e01b81526004016107a593929190612543565b600060405180830381600087803b1580156107bf57600080fd5b505af11580156107d3573d6000803e3d6000fd5b50505050878973ffffffffffffffffffffffffffffffffffffffff163373ffffffffffffffffffffffffffffffffffffffff167f263223b1dd81e51054a4e6f791d45a4a1ddb4aadcd93a2dfd892615c3fdac187866000015160405161083991906126f5565b60405180910390a45050506001600081905550505050505050565b6000600260008373ffffffffffffffffffffffffffffffffffffffff1673ffffffffffffffffffffffffffffffffffffffff168152602001908152602001600020549050919050565b6108a5612109565b60008373ffffffffffffffffffffffffffffffffffffffff166370a08231306040518263ffffffff1660e01b81526004016108e09190612528565b60206040518083038186803b1580156108f857600080fd5b505afa15801561090c573d6000803e3d6000fd5b505050506040513d601f19601f8201168201806040525081019061093091906122e1565b90506109716040518060400160405280600c81526020017f746f6b656e436f756e743a20000000000000000000000000000000000000000081525082611e6a565b600160008573ffffffffffffffffffffffffffffffffffffffff1673ffffffffffffffffffffffffffffffffffffffff1681526020019081526020016000206000848152602001908152602001600020604051806040016040529081600082015481526020016001820160009054906101000a900473ffffffffffffffffffffffffffffffffffffffff1673ffffffffffffffffffffffffffffffffffffffff1673ffffffffffffffffffffffffffffffffffffffff168152505091505092915050565b6000600260003373ffffffffffffffffffffffffffffffffffffffff1673ffffffffffffffffffffffffffffffffffffffff16815260200190815260200160002054905060008111610ab3576040517fc4d8fa8700000000000000000000000000000000000000000000000000000000815260040160405180910390fd5b6000600260003373ffffffffffffffffffffffffffffffffffffffff1673ffffffffffffffffffffffffffffffffffffffff1681526020019081526020016000208190555060003373ffffffffffffffffffffffffffffffffffffffff1682604051610b1e90612513565b60006040518083038185875af1925050503d8060008114610b5b576040519150601f19603f3d011682016040523d82523d6000602084013e610b60565b606091505b5050905080610ba4576040517f08c379a0000000000000000000000000000000000000000000000000000000008152600401610b9b9061269a565b60405180910390fd5b5050565b818133600083905060008173ffffffffffffffffffffffffffffffffffffffff16636352211e856040518263ffffffff1660e01b8152600401610beb91906126f5565b60206040518083038186803b158015610c0357600080fd5b505afa158015610c17573d6000803e3d6000fd5b505050506040513d601f19601f82011682018060405250810190610c3b91906121ba565b90508073ffffffffffffffffffffffffffffffffffffffff168373ffffffffffffffffffffffffffffffffffffffff1614610ca2576040517f30cd747100000000000000000000000000000000000000000000000000000000815260040160405180910390fd5b87600360008973ffffffffffffffffffffffffffffffffffffffff1673ffffffffffffffffffffffffffffffffffffffff168152602001908152602001600020819055505050505050505050565b606060003073ffffffffffffffffffffffffffffffffffffffff166318160ddd6040518163ffffffff1660e01b815260040160206040518083038186803b158015610d3a57600080fd5b505afa158015610d4e573d6000803e3d6000fd5b505050506040513d601f19601f82011682018060405250810190610d7291906122e1565b9050610db36040518060400160405280600f81526020017f616464726573732874686973293a20000000000000000000000000000000000081525030612044565b610df26040518060400160405280600c81526020017f746f6b656e436f756e743a20000000000000000000000000000000000000000081525082611e6a565b60008167ffffffffffffffff811115610e0e57610e0d612a2a565b5b604051908082528060200260200182016040528015610e4757816020015b610e34612109565b815260200190600190039081610e2c5790505b50905060005b82811015610fcf5760003073ffffffffffffffffffffffffffffffffffffffff16634f6ccce7836040518263ffffffff1660e01b8152600401610e9091906126f5565b60206040518083038186803b158015610ea857600080fd5b505afa158015610ebc573d6000803e3d6000fd5b505050506040513d601f19601f82011682018060405250810190610ee091906122e1565b9050600160003073ffffffffffffffffffffffffffffffffffffffff1673ffffffffffffffffffffffffffffffffffffffff1681526020019081526020016000206000828152602001908152602001600020604051806040016040529081600082015481526020016001820160009054906101000a900473ffffffffffffffffffffffffffffffffffffffff1673ffffffffffffffffffffffffffffffffffffffff1673ffffffffffffffffffffffffffffffffffffffff1681525050838381518110610fb057610faf6129fb565b5b6020026020010181905250508080610fc790612954565b915050610e4d565b50809250505090565b818133600083905060008173ffffffffffffffffffffffffffffffffffffffff16636352211e856040518263ffffffff1660e01b815260040161101b91906126f5565b60206040518083038186803b15801561103357600080fd5b505afa158015611047573d6000803e3d6000fd5b505050506040513d601f19601f8201168201806040525081019061106b91906121ba565b90508073ffffffffffffffffffffffffffffffffffffffff168373ffffffffffffffffffffffffffffffffffffffff16146110d2576040517f30cd747100000000000000000000000000000000000000000000000000000000815260040160405180910390fd5b86866000600160008473ffffffffffffffffffffffffffffffffffffffff1673ffffffffffffffffffffffffffffffffffffffff1681526020019081526020016000206000838152602001908152602001600020604051806040016040529081600082015481526020016001820160009054906101000a900473ffffffffffffffffffffffffffffffffffffffff1673ffffffffffffffffffffffffffffffffffffffff1673ffffffffffffffffffffffffffffffffffffffff168152505090506111d66040518060400160405280601081526020017f6c697374696e672e7072696365203a20000000000000000000000000000000008152508260000151611e6a565b60008160000151116112215782826040517f6831488c00000000000000000000000000000000000000000000000000000000815260040161121892919061257a565b60405180910390fd5b600160008b73ffffffffffffffffffffffffffffffffffffffff1673ffffffffffffffffffffffffffffffffffffffff16815260200190815260200160002060008a81526020019081526020016000206000808201600090556001820160006101000a81549073ffffffffffffffffffffffffffffffffffffffff02191690555050888a73ffffffffffffffffffffffffffffffffffffffff163373ffffffffffffffffffffffffffffffffffffffff167f9ba1a3cb55ce8d63d072a886f94d2a744f50cddf82128e897d0661f5ec62315860405160405180910390a450505050505050505050565b83836000600160008473ffffffffffffffffffffffffffffffffffffffff1673ffffffffffffffffffffffffffffffffffffffff1681526020019081526020016000206000838152602001908152602001600020604051806040016040529081600082015481526020016001820160009054906101000a900473ffffffffffffffffffffffffffffffffffffffff1673ffffffffffffffffffffffffffffffffffffffff1673ffffffffffffffffffffffffffffffffffffffff168152505090506000816000015111156114175782826040517f4a5568d500000000000000000000000000000000000000000000000000000000815260040161140e92919061257a565b60405180910390fd5b868633600083905060008173ffffffffffffffffffffffffffffffffffffffff16636352211e856040518263ffffffff1660e01b815260040161145a91906126f5565b60206040518083038186803b15801561147257600080fd5b505afa158015611486573d6000803e3d6000fd5b505050506040513d601f19601f820116820180604052508101906114aa91906121ba565b90508073ffffffffffffffffffffffffffffffffffffffff168373ffffffffffffffffffffffffffffffffffffffff1614611511576040517f30cd747100000000000000000000000000000000000000000000000000000000815260040160405180910390fd5b60008a1161154b576040517fe1abbfc500000000000000000000000000000000000000000000000000000000815260040160405180910390fd5b60008c90503073ffffffffffffffffffffffffffffffffffffffff168173ffffffffffffffffffffffffffffffffffffffff1663081812fc8e6040518263ffffffff1660e01b81526004016115a091906126f5565b60206040518083038186803b1580156115b857600080fd5b505afa1580156115cc573d6000803e3d6000fd5b505050506040513d601f19601f820116820180604052508101906115f091906121ba565b73ffffffffffffffffffffffffffffffffffffffff161461163d576040517f4be3a2c500000000000000000000000000000000000000000000000000000000815260040160405180910390fd5b60405180604001604052808c81526020013373ffffffffffffffffffffffffffffffffffffffff16815250600160008f73ffffffffffffffffffffffffffffffffffffffff1673ffffffffffffffffffffffffffffffffffffffff16815260200190815260200160002060008e81526020019081526020016000206000820151816000015560208201518160010160006101000a81548173ffffffffffffffffffffffffffffffffffffffff021916908373ffffffffffffffffffffffffffffffffffffffff16021790555090505089600360008f73ffffffffffffffffffffffffffffffffffffffff1673ffffffffffffffffffffffffffffffffffffffff168152602001908152602001600020819055508b8d73ffffffffffffffffffffffffffffffffffffffff163373ffffffffffffffffffffffffffffffffffffffff167f91623fbd639d8d503fe2e77aab334b032313685f1b28c84d838c4b647b1f5d9d8e8e6040516117b0929190612710565b60405180910390a450505050505050505050505050565b606060008273ffffffffffffffffffffffffffffffffffffffff166370a08231306040518263ffffffff1660e01b81526004016118049190612528565b60206040518083038186803b15801561181c57600080fd5b505afa158015611830573d6000803e3d6000fd5b505050506040513d601f19601f8201168201806040525081019061185491906122e1565b90506118956040518060400160405280600c81526020017f746f6b656e436f756e743a20000000000000000000000000000000000000000081525082611e6a565b60008167ffffffffffffffff8111156118b1576118b0612a2a565b5b6040519080825280602002602001820160405280156118ea57816020015b6118d7612109565b8152602001906001900390816118cf5790505b50905060005b82811015611a745760008573ffffffffffffffffffffffffffffffffffffffff16632f745c5930846040518363ffffffff1660e01b815260040161193592919061257a565b60206040518083038186803b15801561194d57600080fd5b505afa158015611961573d6000803e3d6000fd5b505050506040513d601f19601f8201168201806040525081019061198591906122e1565b9050600160008773ffffffffffffffffffffffffffffffffffffffff1673ffffffffffffffffffffffffffffffffffffffff1681526020019081526020016000206000828152602001908152602001600020604051806040016040529081600082015481526020016001820160009054906101000a900473ffffffffffffffffffffffffffffffffffffffff1673ffffffffffffffffffffffffffffffffffffffff1673ffffffffffffffffffffffffffffffffffffffff1681525050838381518110611a5557611a546129fb565b5b6020026020010181905250508080611a6c90612954565b9150506118f0565b508092505050919050565b83836000600160008473ffffffffffffffffffffffffffffffffffffffff1673ffffffffffffffffffffffffffffffffffffffff1681526020019081526020016000206000838152602001908152602001600020604051806040016040529081600082015481526020016001820160009054906101000a900473ffffffffffffffffffffffffffffffffffffffff1673ffffffffffffffffffffffffffffffffffffffff1673ffffffffffffffffffffffffffffffffffffffff16815250509050611b836040518060400160405280601081526020017f6c697374696e672e7072696365203a20000000000000000000000000000000008152508260000151611e6a565b6000816000015111611bce5782826040517f6831488c000000000000000000000000000000000000000000000000000000008152600401611bc592919061257a565b60405180910390fd5b60026000541415611c14576040517f08c379a0000000000000000000000000000000000000000000000000000000008152600401611c0b906126ba565b60405180910390fd5b6002600081905550868633600083905060008173ffffffffffffffffffffffffffffffffffffffff16636352211e856040518263ffffffff1660e01b8152600401611c5f91906126f5565b60206040518083038186803b158015611c7757600080fd5b505afa158015611c8b573d6000803e3d6000fd5b505050506040513d601f19601f82011682018060405250810190611caf91906121ba565b90508073ffffffffffffffffffffffffffffffffffffffff168373ffffffffffffffffffffffffffffffffffffffff1614611d16576040517f30cd747100000000000000000000000000000000000000000000000000000000815260040160405180910390fd5b60008a11611d50576040517fe1abbfc500000000000000000000000000000000000000000000000000000000815260040160405180910390fd5b88600360008e73ffffffffffffffffffffffffffffffffffffffff1673ffffffffffffffffffffffffffffffffffffffff1681526020019081526020016000208190555089600160008e73ffffffffffffffffffffffffffffffffffffffff1673ffffffffffffffffffffffffffffffffffffffff16815260200190815260200160002060008d8152602001908152602001600020600001819055508a8c73ffffffffffffffffffffffffffffffffffffffff163373ffffffffffffffffffffffffffffffffffffffff167f91623fbd639d8d503fe2e77aab334b032313685f1b28c84d838c4b647b1f5d9d8d8d604051611e4c929190612710565b60405180910390a45050505050600160008190555050505050505050565b611f028282604051602401611e8092919061262c565b6040516020818303038152906040527f9710a9d0000000000000000000000000000000000000000000000000000000007bffffffffffffffffffffffffffffffffffffffffffffffffffffffff19166020820180517bffffffffffffffffffffffffffffffffffffffffffffffffffffffff83818316178352505050506120e0565b5050565b611fa0838383604051602401611f1e93929190612739565b6040516020818303038152906040527fe7820a74000000000000000000000000000000000000000000000000000000007bffffffffffffffffffffffffffffffffffffffffffffffffffffffff19166020820180517bffffffffffffffffffffffffffffffffffffffffffffffffffffffff83818316178352505050506120e0565b505050565b61203f838383604051602401611fbd9392919061265c565b6040516020818303038152906040527fe3849f79000000000000000000000000000000000000000000000000000000007bffffffffffffffffffffffffffffffffffffffffffffffffffffffff19166020820180517bffffffffffffffffffffffffffffffffffffffffffffffffffffffff83818316178352505050506120e0565b505050565b6120dc828260405160240161205a9291906125fc565b6040516020818303038152906040527f319af333000000000000000000000000000000000000000000000000000000007bffffffffffffffffffffffffffffffffffffffffffffffffffffffff19166020820180517bffffffffffffffffffffffffffffffffffffffffffffffffffffffff83818316178352505050506120e0565b5050565b60008151905060006a636f6e736f6c652e6c6f679050602083016000808483855afa5050505050565b604051806040016040528060008152602001600073ffffffffffffffffffffffffffffffffffffffff1681525090565b60008135905061214881612ac4565b92915050565b60008151905061215d81612ac4565b92915050565b60008135905061217281612adb565b92915050565b60008151905061218781612adb565b92915050565b6000602082840312156121a3576121a2612a59565b5b60006121b184828501612139565b91505092915050565b6000602082840312156121d0576121cf612a59565b5b60006121de8482850161214e565b91505092915050565b600080604083850312156121fe576121fd612a59565b5b600061220c85828601612139565b925050602061221d85828601612163565b9150509250929050565b6000806000606084860312156122405761223f612a59565b5b600061224e86828701612139565b935050602061225f86828701612163565b925050604061227086828701612139565b9150509250925092565b6000806000806080858703121561229457612293612a59565b5b60006122a287828801612139565b94505060206122b387828801612163565b93505060406122c487828801612163565b92505060606122d587828801612163565b91505092959194509250565b6000602082840312156122f7576122f6612a59565b5b600061230584828501612178565b91505092915050565b60008060006060848603121561232757612326612a59565b5b600061233586828701612163565b935050602061234686828701612139565b925050604061235786828701612163565b9150509250925092565b600061236d8383612497565b60408301905092915050565b612382816128e5565b82525050565b612391816128e5565b82525050565b60006123a282612780565b6123ac81856127a3565b93506123b783612770565b8060005b838110156123e85781516123cf8882612361565b97506123da83612796565b9250506001810190506123bb565b5085935050505092915050565b60006124008261278b565b61240a81856127bf565b935061241a818560208601612921565b61242381612a5e565b840191505092915050565b600061243b600f836127bf565b915061244682612a6f565b602082019050919050565b600061245e6000836127b4565b915061246982612a98565b600082019050919050565b6000612481601f836127bf565b915061248c82612a9b565b602082019050919050565b6040820160008201516124ad60008501826124f5565b5060208201516124c06020850182612379565b50505050565b6040820160008201516124dc60008501826124f5565b5060208201516124ef6020850182612379565b50505050565b6124fe81612917565b82525050565b61250d81612917565b82525050565b600061251e82612451565b9150819050919050565b600060208201905061253d6000830184612388565b92915050565b60006060820190506125586000830186612388565b6125656020830185612388565b6125726040830184612504565b949350505050565b600060408201905061258f6000830185612388565b61259c6020830184612504565b9392505050565b60006060820190506125b86000830186612388565b6125c56020830185612504565b6125d26040830184612504565b949350505050565b600060208201905081810360008301526125f48184612397565b905092915050565b6000604082019050818103600083015261261681856123f5565b90506126256020830184612388565b9392505050565b6000604082019050818103600083015261264681856123f5565b90506126556020830184612504565b9392505050565b6000606082019050818103600083015261267681866123f5565b90506126856020830185612504565b6126926040830184612388565b949350505050565b600060208201905081810360008301526126b38161242e565b9050919050565b600060208201905081810360008301526126d381612474565b9050919050565b60006040820190506126ef60008301846124c6565b92915050565b600060208201905061270a6000830184612504565b92915050565b60006040820190506127256000830185612504565b6127326020830184612504565b9392505050565b600060608201905061274e6000830186612504565b61275b6020830185612504565b6127686040830184612504565b949350505050565b6000819050602082019050919050565b600081519050919050565b600081519050919050565b6000602082019050919050565b600082825260208201905092915050565b600081905092915050565b600082825260208201905092915050565b60006127db82612917565b91506127e683612917565b9250827fffffffffffffffffffffffffffffffffffffffffffffffffffffffffffffffff0382111561281b5761281a61299d565b5b828201905092915050565b600061283182612917565b915061283c83612917565b92508261284c5761284b6129cc565b5b828204905092915050565b600061286282612917565b915061286d83612917565b9250817fffffffffffffffffffffffffffffffffffffffffffffffffffffffffffffffff04831182151516156128a6576128a561299d565b5b828202905092915050565b60006128bc82612917565b91506128c783612917565b9250828210156128da576128d961299d565b5b828203905092915050565b60006128f0826128f7565b9050919050565b600073ffffffffffffffffffffffffffffffffffffffff82169050919050565b6000819050919050565b60005b8381101561293f578082015181840152602081019050612924565b8381111561294e576000848401525b50505050565b600061295f82612917565b91507fffffffffffffffffffffffffffffffffffffffffffffffffffffffffffffffff8214156129925761299161299d565b5b600182019050919050565b7f4e487b7100000000000000000000000000000000000000000000000000000000600052601160045260246000fd5b7f4e487b7100000000000000000000000000000000000000000000000000000000600052601260045260246000fd5b7f4e487b7100000000000000000000000000000000000000000000000000000000600052603260045260246000fd5b7f4e487b7100000000000000000000000000000000000000000000000000000000600052604160045260246000fd5b600080fd5b6000601f19601f8301169050919050565b7f5472616e73666572206661696c65640000000000000000000000000000000000600082015250565b50565b7f5265656e7472616e637947756172643a207265656e7472616e742063616c6c00600082015250565b612acd816128e5565b8114612ad857600080fd5b50565b612ae481612917565b8114612aef57600080fd5b5056fe526566657272616c2050657263656e746167653a2025732c20526566666572616c2041646472657373202573a26469706673582212205170d99eafcde853c407ab4c6a5bf07a2f171906395515ce2680119eb5a81f1364736f6c63430008070033",
  "linkReferences": {},
  "deployedLinkReferences": {}
}