{
  "_format": "hh-sol-artifact-1",
  "contractName": "NftStore",
  "sourceName": "contracts/NftStore.sol",
  "abi": [
    {
      "inputs": [
        {
          "internalType": "address",
          "name": "nftAddress",
          "type": "address"
        },
        {
          "internalType": "uint256",
          "name": "tokenId",
          "type": "uint256"
        }
      ],
      "name": "AlreadyListed",
      "type": "error"
    },
    {
      "inputs": [],
      "name": "NoProceeds",
      "type": "error"
    },
    {
      "inputs": [],
      "name": "NotApprovedForMarketplace",
      "type": "error"
    },
    {
      "inputs": [
        {
          "internalType": "address",
          "name": "nftAddress",
          "type": "address"
        },
        {
          "internalType": "uint256",
          "name": "tokenId",
          "type": "uint256"
        }
      ],
      "name": "NotListed",
      "type": "error"
    },
    {
      "inputs": [],
      "name": "NotOwner",
      "type": "error"
    },
    {
      "inputs": [],
      "name": "PriceMustBeAboveZero",
      "type": "error"
    },
    {
      "inputs": [
        {
          "internalType": "address",
          "name": "nftAddress",
          "type": "address"
        },
        {
          "internalType": "uint256",
          "name": "tokenId",
          "type": "uint256"
        },
        {
          "internalType": "uint256",
          "name": "price",
          "type": "uint256"
        }
      ],
      "name": "PriceNotMet",
      "type": "error"
    },
    {
      "anonymous": false,
      "inputs": [
        {
          "indexed": true,
          "internalType": "address",
          "name": "buyer",
          "type": "address"
        },
        {
          "indexed": true,
          "internalType": "address",
          "name": "nftAddress",
          "type": "address"
        },
        {
          "indexed": true,
          "internalType": "uint256",
          "name": "tokenId",
          "type": "uint256"
        },
        {
          "indexed": false,
          "internalType": "uint256",
          "name": "price",
          "type": "uint256"
        }
      ],
      "name": "ItemBought",
      "type": "event"
    },
    {
      "anonymous": false,
      "inputs": [
        {
          "indexed": true,
          "internalType": "address",
          "name": "seller",
          "type": "address"
        },
        {
          "indexed": true,
          "internalType": "address",
          "name": "nftAddress",
          "type": "address"
        },
        {
          "indexed": true,
          "internalType": "uint256",
          "name": "tokenId",
          "type": "uint256"
        }
      ],
      "name": "ItemCanceled",
      "type": "event"
    },
    {
      "anonymous": false,
      "inputs": [
        {
          "indexed": true,
          "internalType": "address",
          "name": "seller",
          "type": "address"
        },
        {
          "indexed": true,
          "internalType": "address",
          "name": "nftAddress",
          "type": "address"
        },
        {
          "indexed": true,
          "internalType": "uint256",
          "name": "tokenId",
          "type": "uint256"
        },
        {
          "indexed": false,
          "internalType": "uint256",
          "name": "price",
          "type": "uint256"
        },
        {
          "indexed": false,
          "internalType": "uint256",
          "name": "percentage",
          "type": "uint256"
        }
      ],
      "name": "ItemListed",
      "type": "event"
    },
    {
      "inputs": [
        {
          "internalType": "address",
          "name": "nftAddress",
          "type": "address"
        },
        {
          "internalType": "uint256",
          "name": "tokenId",
          "type": "uint256"
        },
        {
          "internalType": "address",
          "name": "refferalAddress",
          "type": "address"
        }
      ],
      "name": "buyItem",
      "outputs": [],
      "stateMutability": "payable",
      "type": "function"
    },
    {
      "inputs": [
        {
          "internalType": "address",
          "name": "nftAddress",
          "type": "address"
        },
        {
          "internalType": "uint256",
          "name": "tokenId",
          "type": "uint256"
        }
      ],
      "name": "cancelListing",
      "outputs": [],
      "stateMutability": "nonpayable",
      "type": "function"
    },
    {
      "inputs": [
        {
          "internalType": "address",
          "name": "nftAddress",
          "type": "address"
        },
        {
          "internalType": "uint256",
          "name": "tokenId",
          "type": "uint256"
        }
      ],
      "name": "getListing",
      "outputs": [
        {
          "components": [
            {
              "internalType": "uint256",
              "name": "price",
              "type": "uint256"
            },
            {
              "internalType": "address",
              "name": "seller",
              "type": "address"
            }
          ],
          "internalType": "struct NftStore.Listing",
          "name": "",
          "type": "tuple"
        }
      ],
      "stateMutability": "view",
      "type": "function"
    },
    {
      "inputs": [
        {
          "internalType": "address",
          "name": "seller",
          "type": "address"
        }
      ],
      "name": "getProceeds",
      "outputs": [
        {
          "internalType": "uint256",
          "name": "",
          "type": "uint256"
        }
      ],
      "stateMutability": "view",
      "type": "function"
    },
    {
      "inputs": [
        {
          "internalType": "address",
          "name": "nftAddress",
          "type": "address"
        },
        {
          "internalType": "uint256",
          "name": "tokenId",
          "type": "uint256"
        },
        {
          "internalType": "uint256",
          "name": "price",
          "type": "uint256"
        },
        {
          "internalType": "uint256",
          "name": "_percentage",
          "type": "uint256"
        }
      ],
      "name": "listItem",
      "outputs": [],
      "stateMutability": "nonpayable",
      "type": "function"
    },
    {
      "inputs": [
        {
          "internalType": "uint256",
          "name": "_percentage",
          "type": "uint256"
        },
        {
          "internalType": "address",
          "name": "nftAddress",
          "type": "address"
        },
        {
          "internalType": "uint256",
          "name": "tokenId",
          "type": "uint256"
        }
      ],
      "name": "setReferralPercentage",
      "outputs": [],
      "stateMutability": "nonpayable",
      "type": "function"
    },
    {
      "inputs": [
        {
          "internalType": "address",
          "name": "nftAddress",
          "type": "address"
        },
        {
          "internalType": "uint256",
          "name": "tokenId",
          "type": "uint256"
        },
        {
          "internalType": "uint256",
          "name": "newPrice",
          "type": "uint256"
        },
        {
          "internalType": "uint256",
          "name": "_percentage",
          "type": "uint256"
        }
      ],
      "name": "updateListing",
      "outputs": [],
      "stateMutability": "nonpayable",
      "type": "function"
    },
    {
      "inputs": [],
      "name": "withdrawProceeds",
      "outputs": [],
      "stateMutability": "nonpayable",
      "type": "function"
    }
  ],
  "bytecode": "0x608060405234801561001057600080fd5b5060016000819055506121fa806100286000396000f3fe60806040526004361061007b5760003560e01c80639c4bbb051161004e5780639c4bbb051461012d578063b2ddee0614610156578063bcb143ef1461017f578063d9964757146101a85761007b565b8063259ca3651461008057806330cfeda91461009c57806388700d1c146100d95780639038e69314610116575b600080fd5b61009a60048036038101906100959190611aa4565b6101d1565b005b3480156100a857600080fd5b506100c360048036038101906100be9190611a0a565b610793565b6040516100d09190611e7b565b60405180910390f35b3480156100e557600080fd5b5061010060048036038101906100fb9190611a64565b6107dc565b60405161010d9190611e60565b60405180910390f35b34801561012257600080fd5b5061012b610974565b005b34801561013957600080fd5b50610154600480360381019061014f9190611b8b565b610ae7565b005b34801561016257600080fd5b5061017d60048036038101906101789190611a64565b610c2f565b005b34801561018b57600080fd5b506101a660048036038101906101a19190611af7565b610f1e565b005b3480156101b457600080fd5b506101cf60048036038101906101ca9190611af7565b6113db565b005b82826000600160008473ffffffffffffffffffffffffffffffffffffffff1673ffffffffffffffffffffffffffffffffffffffff1681526020019081526020016000206000838152602001908152602001600020604051806040016040529081600082015481526020016001820160009054906101000a900473ffffffffffffffffffffffffffffffffffffffff1673ffffffffffffffffffffffffffffffffffffffff1673ffffffffffffffffffffffffffffffffffffffff1681525050905060008160000151116102dd5782826040517f6831488c0000000000000000000000000000000000000000000000000000000081526004016102d4929190611d52565b60405180910390fd5b60026000541415610323576040517f08c379a000000000000000000000000000000000000000000000000000000000815260040161031a90611e40565b60405180910390fd5b60026000819055506000600160008873ffffffffffffffffffffffffffffffffffffffff1673ffffffffffffffffffffffffffffffffffffffff1681526020019081526020016000206000878152602001908152602001600020604051806040016040529081600082015481526020016001820160009054906101000a900473ffffffffffffffffffffffffffffffffffffffff1673ffffffffffffffffffffffffffffffffffffffff1673ffffffffffffffffffffffffffffffffffffffff168152505090506103f986826000015134611783565b806000015134101561044a57868682600001516040517f7c93456500000000000000000000000000000000000000000000000000000000815260040161044193929190611d7b565b60405180910390fd5b6000600460008973ffffffffffffffffffffffffffffffffffffffff1673ffffffffffffffffffffffffffffffffffffffff1681526020019081526020016000205490506104b16040518060600160405280602c8152602001612199602c91398288611822565b600080821180156104ef5750600073ffffffffffffffffffffffffffffffffffffffff168773ffffffffffffffffffffffffffffffffffffffff1614155b156105bc57606482346105029190611fa4565b61050c9190611f73565b905060008773ffffffffffffffffffffffffffffffffffffffff168260405161053490611ceb565b60006040518083038185875af1925050503d8060008114610571576040519150601f19603f3d011682016040523d82523d6000602084013e610576565b606091505b50509050806105ba576040517f08c379a00000000000000000000000000000000000000000000000000000000081526004016105b190611e20565b60405180910390fd5b505b80346105c89190611ffe565b60036000856020015173ffffffffffffffffffffffffffffffffffffffff1673ffffffffffffffffffffffffffffffffffffffff168152602001908152602001600020600082825461061a9190611f1d565b92505081905550600160008a73ffffffffffffffffffffffffffffffffffffffff1673ffffffffffffffffffffffffffffffffffffffff16815260200190815260200160002060008981526020019081526020016000206000808201600090556001820160006101000a81549073ffffffffffffffffffffffffffffffffffffffff021916905550508873ffffffffffffffffffffffffffffffffffffffff166342842e0e8460200151338b6040518463ffffffff1660e01b81526004016106e493929190611d1b565b600060405180830381600087803b1580156106fe57600080fd5b505af1158015610712573d6000803e3d6000fd5b50505050878973ffffffffffffffffffffffffffffffffffffffff163373ffffffffffffffffffffffffffffffffffffffff167f263223b1dd81e51054a4e6f791d45a4a1ddb4aadcd93a2dfd892615c3fdac18786600001516040516107789190611e7b565b60405180910390a45050506001600081905550505050505050565b6000600360008373ffffffffffffffffffffffffffffffffffffffff1673ffffffffffffffffffffffffffffffffffffffff168152602001908152602001600020549050919050565b6107e4611986565b60008373ffffffffffffffffffffffffffffffffffffffff166370a08231306040518263ffffffff1660e01b815260040161081f9190611d00565b60206040518083038186803b15801561083757600080fd5b505afa15801561084b573d6000803e3d6000fd5b505050506040513d601f19601f8201168201806040525081019061086f9190611b5e565b90506108b06040518060400160405280600c81526020017f746f6b656e436f756e743a200000000000000000000000000000000000000000815250826118c1565b600160008573ffffffffffffffffffffffffffffffffffffffff1673ffffffffffffffffffffffffffffffffffffffff1681526020019081526020016000206000848152602001908152602001600020604051806040016040529081600082015481526020016001820160009054906101000a900473ffffffffffffffffffffffffffffffffffffffff1673ffffffffffffffffffffffffffffffffffffffff1673ffffffffffffffffffffffffffffffffffffffff168152505091505092915050565b6000600360003373ffffffffffffffffffffffffffffffffffffffff1673ffffffffffffffffffffffffffffffffffffffff168152602001908152602001600020549050600081116109f2576040517fc4d8fa8700000000000000000000000000000000000000000000000000000000815260040160405180910390fd5b6000600360003373ffffffffffffffffffffffffffffffffffffffff1673ffffffffffffffffffffffffffffffffffffffff1681526020019081526020016000208190555060003373ffffffffffffffffffffffffffffffffffffffff1682604051610a5d90611ceb565b60006040518083038185875af1925050503d8060008114610a9a576040519150601f19603f3d011682016040523d82523d6000602084013e610a9f565b606091505b5050905080610ae3576040517f08c379a0000000000000000000000000000000000000000000000000000000008152600401610ada90611e20565b60405180910390fd5b5050565b818133600083905060008173ffffffffffffffffffffffffffffffffffffffff16636352211e856040518263ffffffff1660e01b8152600401610b2a9190611e7b565b60206040518083038186803b158015610b4257600080fd5b505afa158015610b56573d6000803e3d6000fd5b505050506040513d601f19601f82011682018060405250810190610b7a9190611a37565b90508073ffffffffffffffffffffffffffffffffffffffff168373ffffffffffffffffffffffffffffffffffffffff1614610be1576040517f30cd747100000000000000000000000000000000000000000000000000000000815260040160405180910390fd5b87600460008973ffffffffffffffffffffffffffffffffffffffff1673ffffffffffffffffffffffffffffffffffffffff168152602001908152602001600020819055505050505050505050565b818133600083905060008173ffffffffffffffffffffffffffffffffffffffff16636352211e856040518263ffffffff1660e01b8152600401610c729190611e7b565b60206040518083038186803b158015610c8a57600080fd5b505afa158015610c9e573d6000803e3d6000fd5b505050506040513d601f19601f82011682018060405250810190610cc29190611a37565b90508073ffffffffffffffffffffffffffffffffffffffff168373ffffffffffffffffffffffffffffffffffffffff1614610d29576040517f30cd747100000000000000000000000000000000000000000000000000000000815260040160405180910390fd5b86866000600160008473ffffffffffffffffffffffffffffffffffffffff1673ffffffffffffffffffffffffffffffffffffffff1681526020019081526020016000206000838152602001908152602001600020604051806040016040529081600082015481526020016001820160009054906101000a900473ffffffffffffffffffffffffffffffffffffffff1673ffffffffffffffffffffffffffffffffffffffff1673ffffffffffffffffffffffffffffffffffffffff168152505090506000816000015111610e355782826040517f6831488c000000000000000000000000000000000000000000000000000000008152600401610e2c929190611d52565b60405180910390fd5b600160008b73ffffffffffffffffffffffffffffffffffffffff1673ffffffffffffffffffffffffffffffffffffffff16815260200190815260200160002060008a81526020019081526020016000206000808201600090556001820160006101000a81549073ffffffffffffffffffffffffffffffffffffffff02191690555050888a73ffffffffffffffffffffffffffffffffffffffff163373ffffffffffffffffffffffffffffffffffffffff167f9ba1a3cb55ce8d63d072a886f94d2a744f50cddf82128e897d0661f5ec62315860405160405180910390a450505050505050505050565b83836000600160008473ffffffffffffffffffffffffffffffffffffffff1673ffffffffffffffffffffffffffffffffffffffff1681526020019081526020016000206000838152602001908152602001600020604051806040016040529081600082015481526020016001820160009054906101000a900473ffffffffffffffffffffffffffffffffffffffff1673ffffffffffffffffffffffffffffffffffffffff1673ffffffffffffffffffffffffffffffffffffffff1681525050905060008160000151111561102b5782826040517f4a5568d5000000000000000000000000000000000000000000000000000000008152600401611022929190611d52565b60405180910390fd5b868633600083905060008173ffffffffffffffffffffffffffffffffffffffff16636352211e856040518263ffffffff1660e01b815260040161106e9190611e7b565b60206040518083038186803b15801561108657600080fd5b505afa15801561109a573d6000803e3d6000fd5b505050506040513d601f19601f820116820180604052508101906110be9190611a37565b90508073ffffffffffffffffffffffffffffffffffffffff168373ffffffffffffffffffffffffffffffffffffffff1614611125576040517f30cd747100000000000000000000000000000000000000000000000000000000815260040160405180910390fd5b60008a1161115f576040517fe1abbfc500000000000000000000000000000000000000000000000000000000815260040160405180910390fd5b60008c90503073ffffffffffffffffffffffffffffffffffffffff168173ffffffffffffffffffffffffffffffffffffffff1663081812fc8e6040518263ffffffff1660e01b81526004016111b49190611e7b565b60206040518083038186803b1580156111cc57600080fd5b505afa1580156111e0573d6000803e3d6000fd5b505050506040513d601f19601f820116820180604052508101906112049190611a37565b73ffffffffffffffffffffffffffffffffffffffff1614611251576040517f4be3a2c500000000000000000000000000000000000000000000000000000000815260040160405180910390fd5b60405180604001604052808c81526020013373ffffffffffffffffffffffffffffffffffffffff16815250600160008f73ffffffffffffffffffffffffffffffffffffffff1673ffffffffffffffffffffffffffffffffffffffff16815260200190815260200160002060008e81526020019081526020016000206000820151816000015560208201518160010160006101000a81548173ffffffffffffffffffffffffffffffffffffffff021916908373ffffffffffffffffffffffffffffffffffffffff16021790555090505089600460008f73ffffffffffffffffffffffffffffffffffffffff1673ffffffffffffffffffffffffffffffffffffffff168152602001908152602001600020819055508b8d73ffffffffffffffffffffffffffffffffffffffff163373ffffffffffffffffffffffffffffffffffffffff167f91623fbd639d8d503fe2e77aab334b032313685f1b28c84d838c4b647b1f5d9d8e8e6040516113c4929190611e96565b60405180910390a450505050505050505050505050565b83836000600160008473ffffffffffffffffffffffffffffffffffffffff1673ffffffffffffffffffffffffffffffffffffffff1681526020019081526020016000206000838152602001908152602001600020604051806040016040529081600082015481526020016001820160009054906101000a900473ffffffffffffffffffffffffffffffffffffffff1673ffffffffffffffffffffffffffffffffffffffff1673ffffffffffffffffffffffffffffffffffffffff1681525050905060008160000151116114e75782826040517f6831488c0000000000000000000000000000000000000000000000000000000081526004016114de929190611d52565b60405180910390fd5b6002600054141561152d576040517f08c379a000000000000000000000000000000000000000000000000000000000815260040161152490611e40565b60405180910390fd5b6002600081905550868633600083905060008173ffffffffffffffffffffffffffffffffffffffff16636352211e856040518263ffffffff1660e01b81526004016115789190611e7b565b60206040518083038186803b15801561159057600080fd5b505afa1580156115a4573d6000803e3d6000fd5b505050506040513d601f19601f820116820180604052508101906115c89190611a37565b90508073ffffffffffffffffffffffffffffffffffffffff168373ffffffffffffffffffffffffffffffffffffffff161461162f576040517f30cd747100000000000000000000000000000000000000000000000000000000815260040160405180910390fd5b60008a11611669576040517fe1abbfc500000000000000000000000000000000000000000000000000000000815260040160405180910390fd5b88600460008e73ffffffffffffffffffffffffffffffffffffffff1673ffffffffffffffffffffffffffffffffffffffff1681526020019081526020016000208190555089600160008e73ffffffffffffffffffffffffffffffffffffffff1673ffffffffffffffffffffffffffffffffffffffff16815260200190815260200160002060008d8152602001908152602001600020600001819055508a8c73ffffffffffffffffffffffffffffffffffffffff163373ffffffffffffffffffffffffffffffffffffffff167f91623fbd639d8d503fe2e77aab334b032313685f1b28c84d838c4b647b1f5d9d8d8d604051611765929190611e96565b60405180910390a45050505050600160008190555050505050505050565b61181d83838360405160240161179b93929190611ebf565b6040516020818303038152906040527fe7820a74000000000000000000000000000000000000000000000000000000007bffffffffffffffffffffffffffffffffffffffffffffffffffffffff19166020820180517bffffffffffffffffffffffffffffffffffffffffffffffffffffffff838183161783525050505061195d565b505050565b6118bc83838360405160240161183a93929190611de2565b6040516020818303038152906040527fe3849f79000000000000000000000000000000000000000000000000000000007bffffffffffffffffffffffffffffffffffffffffffffffffffffffff19166020820180517bffffffffffffffffffffffffffffffffffffffffffffffffffffffff838183161783525050505061195d565b505050565b61195982826040516024016118d7929190611db2565b6040516020818303038152906040527f9710a9d0000000000000000000000000000000000000000000000000000000007bffffffffffffffffffffffffffffffffffffffffffffffffffffffff19166020820180517bffffffffffffffffffffffffffffffffffffffffffffffffffffffff838183161783525050505061195d565b5050565b60008151905060006a636f6e736f6c652e6c6f679050602083016000808483855afa5050505050565b604051806040016040528060008152602001600073ffffffffffffffffffffffffffffffffffffffff1681525090565b6000813590506119c58161216a565b92915050565b6000815190506119da8161216a565b92915050565b6000813590506119ef81612181565b92915050565b600081519050611a0481612181565b92915050565b600060208284031215611a2057611a1f6120ff565b5b6000611a2e848285016119b6565b91505092915050565b600060208284031215611a4d57611a4c6120ff565b5b6000611a5b848285016119cb565b91505092915050565b60008060408385031215611a7b57611a7a6120ff565b5b6000611a89858286016119b6565b9250506020611a9a858286016119e0565b9150509250929050565b600080600060608486031215611abd57611abc6120ff565b5b6000611acb868287016119b6565b9350506020611adc868287016119e0565b9250506040611aed868287016119b6565b9150509250925092565b60008060008060808587031215611b1157611b106120ff565b5b6000611b1f878288016119b6565b9450506020611b30878288016119e0565b9350506040611b41878288016119e0565b9250506060611b52878288016119e0565b91505092959194509250565b600060208284031215611b7457611b736120ff565b5b6000611b82848285016119f5565b91505092915050565b600080600060608486031215611ba457611ba36120ff565b5b6000611bb2868287016119e0565b9350506020611bc3868287016119b6565b9250506040611bd4868287016119e0565b9150509250925092565b611be781612032565b82525050565b611bf681612032565b82525050565b6000611c0782611ef6565b611c118185611f0c565b9350611c2181856020860161206e565b611c2a81612104565b840191505092915050565b6000611c42600f83611f0c565b9150611c4d82612115565b602082019050919050565b6000611c65600083611f01565b9150611c708261213e565b600082019050919050565b6000611c88601f83611f0c565b9150611c9382612141565b602082019050919050565b604082016000820151611cb46000850182611ccd565b506020820151611cc76020850182611bde565b50505050565b611cd681612064565b82525050565b611ce581612064565b82525050565b6000611cf682611c58565b9150819050919050565b6000602082019050611d156000830184611bed565b92915050565b6000606082019050611d306000830186611bed565b611d3d6020830185611bed565b611d4a6040830184611cdc565b949350505050565b6000604082019050611d676000830185611bed565b611d746020830184611cdc565b9392505050565b6000606082019050611d906000830186611bed565b611d9d6020830185611cdc565b611daa6040830184611cdc565b949350505050565b60006040820190508181036000830152611dcc8185611bfc565b9050611ddb6020830184611cdc565b9392505050565b60006060820190508181036000830152611dfc8186611bfc565b9050611e0b6020830185611cdc565b611e186040830184611bed565b949350505050565b60006020820190508181036000830152611e3981611c35565b9050919050565b60006020820190508181036000830152611e5981611c7b565b9050919050565b6000604082019050611e756000830184611c9e565b92915050565b6000602082019050611e906000830184611cdc565b92915050565b6000604082019050611eab6000830185611cdc565b611eb86020830184611cdc565b9392505050565b6000606082019050611ed46000830186611cdc565b611ee16020830185611cdc565b611eee6040830184611cdc565b949350505050565b600081519050919050565b600081905092915050565b600082825260208201905092915050565b6000611f2882612064565b9150611f3383612064565b9250827fffffffffffffffffffffffffffffffffffffffffffffffffffffffffffffffff03821115611f6857611f676120a1565b5b828201905092915050565b6000611f7e82612064565b9150611f8983612064565b925082611f9957611f986120d0565b5b828204905092915050565b6000611faf82612064565b9150611fba83612064565b9250817fffffffffffffffffffffffffffffffffffffffffffffffffffffffffffffffff0483118215151615611ff357611ff26120a1565b5b828202905092915050565b600061200982612064565b915061201483612064565b925082821015612027576120266120a1565b5b828203905092915050565b600061203d82612044565b9050919050565b600073ffffffffffffffffffffffffffffffffffffffff82169050919050565b6000819050919050565b60005b8381101561208c578082015181840152602081019050612071565b8381111561209b576000848401525b50505050565b7f4e487b7100000000000000000000000000000000000000000000000000000000600052601160045260246000fd5b7f4e487b7100000000000000000000000000000000000000000000000000000000600052601260045260246000fd5b600080fd5b6000601f19601f8301169050919050565b7f5472616e73666572206661696c65640000000000000000000000000000000000600082015250565b50565b7f5265656e7472616e637947756172643a207265656e7472616e742063616c6c00600082015250565b61217381612032565b811461217e57600080fd5b50565b61218a81612064565b811461219557600080fd5b5056fe526566657272616c2050657263656e746167653a2025732c20526566666572616c2041646472657373202573a264697066735822122090df89e989b59c75505fe1deb3e9206ece5b489f32668e50e97d05c51238235564736f6c63430008070033",
  "linkReferences": {},
  "deployedLinkReferences": {}
}