{
  "address": "0xe7f1725E7734CE288F8367e1Bb143E90bb3F0512",
  "abi": [
    {
      "inputs": [],
      "stateMutability": "nonpayable",
      "type": "constructor"
    },
    {
      "anonymous": false,
      "inputs": [
        {
          "indexed": true,
          "internalType": "address",
          "name": "owner",
          "type": "address"
        },
        {
          "indexed": true,
          "internalType": "address",
          "name": "approved",
          "type": "address"
        },
        {
          "indexed": true,
          "internalType": "uint256",
          "name": "tokenId",
          "type": "uint256"
        }
      ],
      "name": "Approval",
      "type": "event"
    },
    {
      "anonymous": false,
      "inputs": [
        {
          "indexed": true,
          "internalType": "address",
          "name": "owner",
          "type": "address"
        },
        {
          "indexed": true,
          "internalType": "address",
          "name": "operator",
          "type": "address"
        },
        {
          "indexed": false,
          "internalType": "bool",
          "name": "approved",
          "type": "bool"
        }
      ],
      "name": "ApprovalForAll",
      "type": "event"
    },
    {
      "anonymous": false,
      "inputs": [
        {
          "indexed": true,
          "internalType": "uint256",
          "name": "tokenId",
          "type": "uint256"
        }
      ],
      "name": "DogMinted",
      "type": "event"
    },
    {
      "anonymous": false,
      "inputs": [
        {
          "indexed": true,
          "internalType": "address",
          "name": "from",
          "type": "address"
        },
        {
          "indexed": true,
          "internalType": "address",
          "name": "to",
          "type": "address"
        },
        {
          "indexed": true,
          "internalType": "uint256",
          "name": "tokenId",
          "type": "uint256"
        }
      ],
      "name": "Transfer",
      "type": "event"
    },
    {
      "inputs": [
        {
          "internalType": "address",
          "name": "to",
          "type": "address"
        },
        {
          "internalType": "uint256",
          "name": "tokenId",
          "type": "uint256"
        }
      ],
      "name": "approve",
      "outputs": [],
      "stateMutability": "nonpayable",
      "type": "function"
    },
    {
      "inputs": [
        {
          "internalType": "address",
          "name": "owner",
          "type": "address"
        }
      ],
      "name": "balanceOf",
      "outputs": [
        {
          "internalType": "uint256",
          "name": "",
          "type": "uint256"
        }
      ],
      "stateMutability": "view",
      "type": "function"
    },
    {
      "inputs": [
        {
          "internalType": "uint256",
          "name": "tokenId",
          "type": "uint256"
        }
      ],
      "name": "getApproved",
      "outputs": [
        {
          "internalType": "address",
          "name": "",
          "type": "address"
        }
      ],
      "stateMutability": "view",
      "type": "function"
    },
    {
      "inputs": [],
      "name": "getTokenCounter",
      "outputs": [
        {
          "internalType": "uint256",
          "name": "",
          "type": "uint256"
        }
      ],
      "stateMutability": "view",
      "type": "function"
    },
    {
      "inputs": [
        {
          "internalType": "address",
          "name": "owner",
          "type": "address"
        },
        {
          "internalType": "address",
          "name": "operator",
          "type": "address"
        }
      ],
      "name": "isApprovedForAll",
      "outputs": [
        {
          "internalType": "bool",
          "name": "",
          "type": "bool"
        }
      ],
      "stateMutability": "view",
      "type": "function"
    },
    {
      "inputs": [
        {
          "internalType": "string",
          "name": "_tokenURI",
          "type": "string"
        }
      ],
      "name": "mintNft",
      "outputs": [],
      "stateMutability": "nonpayable",
      "type": "function"
    },
    {
      "inputs": [],
      "name": "name",
      "outputs": [
        {
          "internalType": "string",
          "name": "",
          "type": "string"
        }
      ],
      "stateMutability": "view",
      "type": "function"
    },
    {
      "inputs": [
        {
          "internalType": "uint256",
          "name": "tokenId",
          "type": "uint256"
        }
      ],
      "name": "ownerOf",
      "outputs": [
        {
          "internalType": "address",
          "name": "",
          "type": "address"
        }
      ],
      "stateMutability": "view",
      "type": "function"
    },
    {
      "inputs": [
        {
          "internalType": "address",
          "name": "from",
          "type": "address"
        },
        {
          "internalType": "address",
          "name": "to",
          "type": "address"
        },
        {
          "internalType": "uint256",
          "name": "tokenId",
          "type": "uint256"
        }
      ],
      "name": "safeTransferFrom",
      "outputs": [],
      "stateMutability": "nonpayable",
      "type": "function"
    },
    {
      "inputs": [
        {
          "internalType": "address",
          "name": "from",
          "type": "address"
        },
        {
          "internalType": "address",
          "name": "to",
          "type": "address"
        },
        {
          "internalType": "uint256",
          "name": "tokenId",
          "type": "uint256"
        },
        {
          "internalType": "bytes",
          "name": "_data",
          "type": "bytes"
        }
      ],
      "name": "safeTransferFrom",
      "outputs": [],
      "stateMutability": "nonpayable",
      "type": "function"
    },
    {
      "inputs": [
        {
          "internalType": "address",
          "name": "operator",
          "type": "address"
        },
        {
          "internalType": "bool",
          "name": "approved",
          "type": "bool"
        }
      ],
      "name": "setApprovalForAll",
      "outputs": [],
      "stateMutability": "nonpayable",
      "type": "function"
    },
    {
      "inputs": [
        {
          "internalType": "bytes4",
          "name": "interfaceId",
          "type": "bytes4"
        }
      ],
      "name": "supportsInterface",
      "outputs": [
        {
          "internalType": "bool",
          "name": "",
          "type": "bool"
        }
      ],
      "stateMutability": "view",
      "type": "function"
    },
    {
      "inputs": [],
      "name": "symbol",
      "outputs": [
        {
          "internalType": "string",
          "name": "",
          "type": "string"
        }
      ],
      "stateMutability": "view",
      "type": "function"
    },
    {
      "inputs": [
        {
          "internalType": "uint256",
          "name": "tokenId",
          "type": "uint256"
        }
      ],
      "name": "tokenURI",
      "outputs": [
        {
          "internalType": "string",
          "name": "",
          "type": "string"
        }
      ],
      "stateMutability": "view",
      "type": "function"
    },
    {
      "inputs": [
        {
          "internalType": "address",
          "name": "from",
          "type": "address"
        },
        {
          "internalType": "address",
          "name": "to",
          "type": "address"
        },
        {
          "internalType": "uint256",
          "name": "tokenId",
          "type": "uint256"
        }
      ],
      "name": "transferFrom",
      "outputs": [],
      "stateMutability": "nonpayable",
      "type": "function"
    }
  ],
  "transactionHash": "0x58b9bab0784359ff4b39e4849c4a6ce5041e886a06e9b3b0970b7c0e5dd68697",
  "args": [],
  "numDeployments": 1,
  "solcInputHash": "b7368d1eb68e9306c1fd51050a522fc9",
  "bytecode": "0x60806040523480156200001157600080fd5b506040518060400160405280600581526020017f446f6769650000000000000000000000000000000000000000000000000000008152506040518060400160405280600381526020017f444f470000000000000000000000000000000000000000000000000000000000815250816000908051906020019062000096929190620000c0565b508060019080519060200190620000af929190620000c0565b5050506000600681905550620001d5565b828054620000ce9062000170565b90600052602060002090601f016020900481019282620000f257600085556200013e565b82601f106200010d57805160ff19168380011785556200013e565b828001600101855582156200013e579182015b828111156200013d57825182559160200191906001019062000120565b5b5090506200014d919062000151565b5090565b5b808211156200016c57600081600090555060010162000152565b5090565b600060028204905060018216806200018957607f821691505b60208210811415620001a0576200019f620001a6565b5b50919050565b7f4e487b7100000000000000000000000000000000000000000000000000000000600052602260045260246000fd5b61282680620001e56000396000f3fe608060405234801561001057600080fd5b50600436106100f55760003560e01c80636e02007d11610097578063b88d4fde11610066578063b88d4fde14610284578063c87b56dd146102a0578063da86f4a9146102d0578063e985e9c5146102ec576100f5565b80636e02007d146101fc57806370a082311461021a57806395d89b411461024a578063a22cb46514610268576100f5565b8063095ea7b3116100d3578063095ea7b31461017857806323b872dd1461019457806342842e0e146101b05780636352211e146101cc576100f5565b806301ffc9a7146100fa57806306fdde031461012a578063081812fc14610148575b600080fd5b610114600480360381019061010f91906119ed565b61031c565b6040516101219190611dd0565b60405180910390f35b6101326103fe565b60405161013f9190611deb565b60405180910390f35b610162600480360381019061015d9190611a90565b610490565b60405161016f9190611d69565b60405180910390f35b610192600480360381019061018d91906119ad565b610515565b005b6101ae60048036038101906101a99190611897565b61062d565b005b6101ca60048036038101906101c59190611897565b61068d565b005b6101e660048036038101906101e19190611a90565b6106ad565b6040516101f39190611d69565b60405180910390f35b61020461075f565b6040516102119190611fed565b60405180910390f35b610234600480360381019061022f919061182a565b610769565b6040516102419190611fed565b60405180910390f35b610252610821565b60405161025f9190611deb565b60405180910390f35b610282600480360381019061027d919061196d565b6108b3565b005b61029e600480360381019061029991906118ea565b6108c9565b005b6102ba60048036038101906102b59190611a90565b61092b565b6040516102c79190611deb565b60405180910390f35b6102ea60048036038101906102e59190611a47565b610a18565b005b61030660048036038101906103019190611857565b610a7a565b6040516103139190611dd0565b60405180910390f35b60007f80ac58cd000000000000000000000000000000000000000000000000000000007bffffffffffffffffffffffffffffffffffffffffffffffffffffffff1916827bffffffffffffffffffffffffffffffffffffffffffffffffffffffff191614806103e757507f5b5e139f000000000000000000000000000000000000000000000000000000007bffffffffffffffffffffffffffffffffffffffffffffffffffffffff1916827bffffffffffffffffffffffffffffffffffffffffffffffffffffffff1916145b806103f757506103f682610b0e565b5b9050919050565b60606000805461040d90612207565b80601f016020809104026020016040519081016040528092919081815260200182805461043990612207565b80156104865780601f1061045b57610100808354040283529160200191610486565b820191906000526020600020905b81548152906001019060200180831161046957829003601f168201915b5050505050905090565b600061049b82610b78565b6104da576040517f08c379a00000000000000000000000000000000000000000000000000000000081526004016104d190611f4d565b60405180910390fd5b6004600083815260200190815260200160002060009054906101000a900473ffffffffffffffffffffffffffffffffffffffff169050919050565b6000610520826106ad565b90508073ffffffffffffffffffffffffffffffffffffffff168373ffffffffffffffffffffffffffffffffffffffff161415610591576040517f08c379a000000000000000000000000000000000000000000000000000000000815260040161058890611fad565b60405180910390fd5b8073ffffffffffffffffffffffffffffffffffffffff166105b0610be4565b73ffffffffffffffffffffffffffffffffffffffff1614806105df57506105de816105d9610be4565b610a7a565b5b61061e576040517f08c379a000000000000000000000000000000000000000000000000000000000815260040161061590611ecd565b60405180910390fd5b6106288383610bec565b505050565b61063e610638610be4565b82610ca5565b61067d576040517f08c379a000000000000000000000000000000000000000000000000000000000815260040161067490611fcd565b60405180910390fd5b610688838383610d83565b505050565b6106a8838383604051806020016040528060008152506108c9565b505050565b6000806002600084815260200190815260200160002060009054906101000a900473ffffffffffffffffffffffffffffffffffffffff169050600073ffffffffffffffffffffffffffffffffffffffff168173ffffffffffffffffffffffffffffffffffffffff161415610756576040517f08c379a000000000000000000000000000000000000000000000000000000000815260040161074d90611f0d565b60405180910390fd5b80915050919050565b6000600654905090565b60008073ffffffffffffffffffffffffffffffffffffffff168273ffffffffffffffffffffffffffffffffffffffff1614156107da576040517f08c379a00000000000000000000000000000000000000000000000000000000081526004016107d190611eed565b60405180910390fd5b600360008373ffffffffffffffffffffffffffffffffffffffff1673ffffffffffffffffffffffffffffffffffffffff168152602001908152602001600020549050919050565b60606001805461083090612207565b80601f016020809104026020016040519081016040528092919081815260200182805461085c90612207565b80156108a95780601f1061087e576101008083540402835291602001916108a9565b820191906000526020600020905b81548152906001019060200180831161088c57829003601f168201915b5050505050905090565b6108c56108be610be4565b8383610fea565b5050565b6108da6108d4610be4565b83610ca5565b610919576040517f08c379a000000000000000000000000000000000000000000000000000000000815260040161091090611fcd565b60405180910390fd5b61092584848484611157565b50505050565b606061093682610b78565b610975576040517f08c379a000000000000000000000000000000000000000000000000000000000815260040161096c90611f8d565b60405180910390fd5b60076000838152602001908152602001600020805461099390612207565b80601f01602080910402602001604051908101604052809291908181526020018280546109bf90612207565b8015610a0c5780601f106109e157610100808354040283529160200191610a0c565b820191906000526020600020905b8154815290600101906020018083116109ef57829003601f168201915b50505050509050919050565b610a24336006546111b3565b610a30600654826111d1565b6006547fef1da42f89c42f48befa143007e6f5efd84a2d1cc3dc97c5edd2d3373220f66d60405160405180910390a260066000815480929190610a729061226a565b919050555050565b6000600560008473ffffffffffffffffffffffffffffffffffffffff1673ffffffffffffffffffffffffffffffffffffffff16815260200190815260200160002060008373ffffffffffffffffffffffffffffffffffffffff1673ffffffffffffffffffffffffffffffffffffffff16815260200190815260200160002060009054906101000a900460ff16905092915050565b60007f01ffc9a7000000000000000000000000000000000000000000000000000000007bffffffffffffffffffffffffffffffffffffffffffffffffffffffff1916827bffffffffffffffffffffffffffffffffffffffffffffffffffffffff1916149050919050565b60008073ffffffffffffffffffffffffffffffffffffffff166002600084815260200190815260200160002060009054906101000a900473ffffffffffffffffffffffffffffffffffffffff1673ffffffffffffffffffffffffffffffffffffffff1614159050919050565b600033905090565b816004600083815260200190815260200160002060006101000a81548173ffffffffffffffffffffffffffffffffffffffff021916908373ffffffffffffffffffffffffffffffffffffffff160217905550808273ffffffffffffffffffffffffffffffffffffffff16610c5f836106ad565b73ffffffffffffffffffffffffffffffffffffffff167f8c5be1e5ebec7d5bd14f71427d1e84f3dd0314c0f7b2291e5b200ac8c7c3b92560405160405180910390a45050565b6000610cb082610b78565b610cef576040517f08c379a0000000000000000000000000000000000000000000000000000000008152600401610ce690611ead565b60405180910390fd5b6000610cfa836106ad565b90508073ffffffffffffffffffffffffffffffffffffffff168473ffffffffffffffffffffffffffffffffffffffff161480610d6957508373ffffffffffffffffffffffffffffffffffffffff16610d5184610490565b73ffffffffffffffffffffffffffffffffffffffff16145b80610d7a5750610d798185610a7a565b5b91505092915050565b8273ffffffffffffffffffffffffffffffffffffffff16610da3826106ad565b73ffffffffffffffffffffffffffffffffffffffff1614610df9576040517f08c379a0000000000000000000000000000000000000000000000000000000008152600401610df090611e2d565b60405180910390fd5b600073ffffffffffffffffffffffffffffffffffffffff168273ffffffffffffffffffffffffffffffffffffffff161415610e69576040517f08c379a0000000000000000000000000000000000000000000000000000000008152600401610e6090611e6d565b60405180910390fd5b610e74838383611245565b610e7f600082610bec565b6001600360008573ffffffffffffffffffffffffffffffffffffffff1673ffffffffffffffffffffffffffffffffffffffff1681526020019081526020016000206000828254610ecf919061211d565b925050819055506001600360008473ffffffffffffffffffffffffffffffffffffffff1673ffffffffffffffffffffffffffffffffffffffff1681526020019081526020016000206000828254610f2691906120c7565b92505081905550816002600083815260200190815260200160002060006101000a81548173ffffffffffffffffffffffffffffffffffffffff021916908373ffffffffffffffffffffffffffffffffffffffff160217905550808273ffffffffffffffffffffffffffffffffffffffff168473ffffffffffffffffffffffffffffffffffffffff167fddf252ad1be2c89b69c2b068fc378daa952ba7f163c4a11628f55a4df523b3ef60405160405180910390a4610fe583838361124a565b505050565b8173ffffffffffffffffffffffffffffffffffffffff168373ffffffffffffffffffffffffffffffffffffffff161415611059576040517f08c379a000000000000000000000000000000000000000000000000000000000815260040161105090611e8d565b60405180910390fd5b80600560008573ffffffffffffffffffffffffffffffffffffffff1673ffffffffffffffffffffffffffffffffffffffff16815260200190815260200160002060008473ffffffffffffffffffffffffffffffffffffffff1673ffffffffffffffffffffffffffffffffffffffff16815260200190815260200160002060006101000a81548160ff0219169083151502179055508173ffffffffffffffffffffffffffffffffffffffff168373ffffffffffffffffffffffffffffffffffffffff167f17307eab39ab6107e8899845ad3d59bd9653f200f220920489ca2b5937696c318360405161114a9190611dd0565b60405180910390a3505050565b611162848484610d83565b61116e8484848461124f565b6111ad576040517f08c379a00000000000000000000000000000000000000000000000000000000081526004016111a490611e0d565b60405180910390fd5b50505050565b6111cd8282604051806020016040528060008152506113e6565b5050565b6111da82610b78565b611219576040517f08c379a000000000000000000000000000000000000000000000000000000000815260040161121090611f6d565b60405180910390fd5b8060076000848152602001908152602001600020908051906020019061124092919061163e565b505050565b505050565b505050565b60006112708473ffffffffffffffffffffffffffffffffffffffff16611441565b156113d9578373ffffffffffffffffffffffffffffffffffffffff1663150b7a02611299610be4565b8786866040518563ffffffff1660e01b81526004016112bb9493929190611d84565b602060405180830381600087803b1580156112d557600080fd5b505af192505050801561130657506040513d601f19601f820116820180604052508101906113039190611a1a565b60015b611389573d8060008114611336576040519150601f19603f3d011682016040523d82523d6000602084013e61133b565b606091505b50600081511415611381576040517f08c379a000000000000000000000000000000000000000000000000000000000815260040161137890611e0d565b60405180910390fd5b805181602001fd5b63150b7a0260e01b7bffffffffffffffffffffffffffffffffffffffffffffffffffffffff1916817bffffffffffffffffffffffffffffffffffffffffffffffffffffffff1916149150506113de565b600190505b949350505050565b6113f08383611464565b6113fd600084848461124f565b61143c576040517f08c379a000000000000000000000000000000000000000000000000000000000815260040161143390611e0d565b60405180910390fd5b505050565b6000808273ffffffffffffffffffffffffffffffffffffffff163b119050919050565b600073ffffffffffffffffffffffffffffffffffffffff168273ffffffffffffffffffffffffffffffffffffffff1614156114d4576040517f08c379a00000000000000000000000000000000000000000000000000000000081526004016114cb90611f2d565b60405180910390fd5b6114dd81610b78565b1561151d576040517f08c379a000000000000000000000000000000000000000000000000000000000815260040161151490611e4d565b60405180910390fd5b61152960008383611245565b6001600360008473ffffffffffffffffffffffffffffffffffffffff1673ffffffffffffffffffffffffffffffffffffffff168152602001908152602001600020600082825461157991906120c7565b92505081905550816002600083815260200190815260200160002060006101000a81548173ffffffffffffffffffffffffffffffffffffffff021916908373ffffffffffffffffffffffffffffffffffffffff160217905550808273ffffffffffffffffffffffffffffffffffffffff16600073ffffffffffffffffffffffffffffffffffffffff167fddf252ad1be2c89b69c2b068fc378daa952ba7f163c4a11628f55a4df523b3ef60405160405180910390a461163a6000838361124a565b5050565b82805461164a90612207565b90600052602060002090601f01602090048101928261166c57600085556116b3565b82601f1061168557805160ff19168380011785556116b3565b828001600101855582156116b3579182015b828111156116b2578251825591602001919060010190611697565b5b5090506116c091906116c4565b5090565b5b808211156116dd5760008160009055506001016116c5565b5090565b60006116f46116ef8461202d565b612008565b9050828152602081018484840111156117105761170f612345565b5b61171b8482856121c5565b509392505050565b60006117366117318461205e565b612008565b90508281526020810184848401111561175257611751612345565b5b61175d8482856121c5565b509392505050565b60008135905061177481612794565b92915050565b600081359050611789816127ab565b92915050565b60008135905061179e816127c2565b92915050565b6000815190506117b3816127c2565b92915050565b600082601f8301126117ce576117cd612340565b5b81356117de8482602086016116e1565b91505092915050565b600082601f8301126117fc576117fb612340565b5b813561180c848260208601611723565b91505092915050565b600081359050611824816127d9565b92915050565b6000602082840312156118405761183f61234f565b5b600061184e84828501611765565b91505092915050565b6000806040838503121561186e5761186d61234f565b5b600061187c85828601611765565b925050602061188d85828601611765565b9150509250929050565b6000806000606084860312156118b0576118af61234f565b5b60006118be86828701611765565b93505060206118cf86828701611765565b92505060406118e086828701611815565b9150509250925092565b600080600080608085870312156119045761190361234f565b5b600061191287828801611765565b945050602061192387828801611765565b935050604061193487828801611815565b925050606085013567ffffffffffffffff8111156119555761195461234a565b5b611961878288016117b9565b91505092959194509250565b600080604083850312156119845761198361234f565b5b600061199285828601611765565b92505060206119a38582860161177a565b9150509250929050565b600080604083850312156119c4576119c361234f565b5b60006119d285828601611765565b92505060206119e385828601611815565b9150509250929050565b600060208284031215611a0357611a0261234f565b5b6000611a118482850161178f565b91505092915050565b600060208284031215611a3057611a2f61234f565b5b6000611a3e848285016117a4565b91505092915050565b600060208284031215611a5d57611a5c61234f565b5b600082013567ffffffffffffffff811115611a7b57611a7a61234a565b5b611a87848285016117e7565b91505092915050565b600060208284031215611aa657611aa561234f565b5b6000611ab484828501611815565b91505092915050565b611ac681612151565b82525050565b611ad581612163565b82525050565b6000611ae68261208f565b611af081856120a5565b9350611b008185602086016121d4565b611b0981612354565b840191505092915050565b6000611b1f8261209a565b611b2981856120b6565b9350611b398185602086016121d4565b611b4281612354565b840191505092915050565b6000611b5a6032836120b6565b9150611b6582612365565b604082019050919050565b6000611b7d6025836120b6565b9150611b88826123b4565b604082019050919050565b6000611ba0601c836120b6565b9150611bab82612403565b602082019050919050565b6000611bc36024836120b6565b9150611bce8261242c565b604082019050919050565b6000611be66019836120b6565b9150611bf18261247b565b602082019050919050565b6000611c09602c836120b6565b9150611c14826124a4565b604082019050919050565b6000611c2c6038836120b6565b9150611c37826124f3565b604082019050919050565b6000611c4f602a836120b6565b9150611c5a82612542565b604082019050919050565b6000611c726029836120b6565b9150611c7d82612591565b604082019050919050565b6000611c956020836120b6565b9150611ca0826125e0565b602082019050919050565b6000611cb8602c836120b6565b9150611cc382612609565b604082019050919050565b6000611cdb602c836120b6565b9150611ce682612658565b604082019050919050565b6000611cfe602f836120b6565b9150611d09826126a7565b604082019050919050565b6000611d216021836120b6565b9150611d2c826126f6565b604082019050919050565b6000611d446031836120b6565b9150611d4f82612745565b604082019050919050565b611d63816121bb565b82525050565b6000602082019050611d7e6000830184611abd565b92915050565b6000608082019050611d996000830187611abd565b611da66020830186611abd565b611db36040830185611d5a565b8181036060830152611dc58184611adb565b905095945050505050565b6000602082019050611de56000830184611acc565b92915050565b60006020820190508181036000830152611e058184611b14565b905092915050565b60006020820190508181036000830152611e2681611b4d565b9050919050565b60006020820190508181036000830152611e4681611b70565b9050919050565b60006020820190508181036000830152611e6681611b93565b9050919050565b60006020820190508181036000830152611e8681611bb6565b9050919050565b60006020820190508181036000830152611ea681611bd9565b9050919050565b60006020820190508181036000830152611ec681611bfc565b9050919050565b60006020820190508181036000830152611ee681611c1f565b9050919050565b60006020820190508181036000830152611f0681611c42565b9050919050565b60006020820190508181036000830152611f2681611c65565b9050919050565b60006020820190508181036000830152611f4681611c88565b9050919050565b60006020820190508181036000830152611f6681611cab565b9050919050565b60006020820190508181036000830152611f8681611cce565b9050919050565b60006020820190508181036000830152611fa681611cf1565b9050919050565b60006020820190508181036000830152611fc681611d14565b9050919050565b60006020820190508181036000830152611fe681611d37565b9050919050565b60006020820190506120026000830184611d5a565b92915050565b6000612012612023565b905061201e8282612239565b919050565b6000604051905090565b600067ffffffffffffffff82111561204857612047612311565b5b61205182612354565b9050602081019050919050565b600067ffffffffffffffff82111561207957612078612311565b5b61208282612354565b9050602081019050919050565b600081519050919050565b600081519050919050565b600082825260208201905092915050565b600082825260208201905092915050565b60006120d2826121bb565b91506120dd836121bb565b9250827fffffffffffffffffffffffffffffffffffffffffffffffffffffffffffffffff03821115612112576121116122b3565b5b828201905092915050565b6000612128826121bb565b9150612133836121bb565b925082821015612146576121456122b3565b5b828203905092915050565b600061215c8261219b565b9050919050565b60008115159050919050565b60007fffffffff0000000000000000000000000000000000000000000000000000000082169050919050565b600073ffffffffffffffffffffffffffffffffffffffff82169050919050565b6000819050919050565b82818337600083830152505050565b60005b838110156121f25780820151818401526020810190506121d7565b83811115612201576000848401525b50505050565b6000600282049050600182168061221f57607f821691505b60208210811415612233576122326122e2565b5b50919050565b61224282612354565b810181811067ffffffffffffffff8211171561226157612260612311565b5b80604052505050565b6000612275826121bb565b91507fffffffffffffffffffffffffffffffffffffffffffffffffffffffffffffffff8214156122a8576122a76122b3565b5b600182019050919050565b7f4e487b7100000000000000000000000000000000000000000000000000000000600052601160045260246000fd5b7f4e487b7100000000000000000000000000000000000000000000000000000000600052602260045260246000fd5b7f4e487b7100000000000000000000000000000000000000000000000000000000600052604160045260246000fd5b600080fd5b600080fd5b600080fd5b600080fd5b6000601f19601f8301169050919050565b7f4552433732313a207472616e7366657220746f206e6f6e20455243373231526560008201527f63656976657220696d706c656d656e7465720000000000000000000000000000602082015250565b7f4552433732313a207472616e736665722066726f6d20696e636f72726563742060008201527f6f776e6572000000000000000000000000000000000000000000000000000000602082015250565b7f4552433732313a20746f6b656e20616c7265616479206d696e74656400000000600082015250565b7f4552433732313a207472616e7366657220746f20746865207a65726f2061646460008201527f7265737300000000000000000000000000000000000000000000000000000000602082015250565b7f4552433732313a20617070726f766520746f2063616c6c657200000000000000600082015250565b7f4552433732313a206f70657261746f7220717565727920666f72206e6f6e657860008201527f697374656e7420746f6b656e0000000000000000000000000000000000000000602082015250565b7f4552433732313a20617070726f76652063616c6c6572206973206e6f74206f7760008201527f6e6572206e6f7220617070726f76656420666f7220616c6c0000000000000000602082015250565b7f4552433732313a2062616c616e636520717565727920666f7220746865207a6560008201527f726f206164647265737300000000000000000000000000000000000000000000602082015250565b7f4552433732313a206f776e657220717565727920666f72206e6f6e657869737460008201527f656e7420746f6b656e0000000000000000000000000000000000000000000000602082015250565b7f4552433732313a206d696e7420746f20746865207a65726f2061646472657373600082015250565b7f4552433732313a20617070726f76656420717565727920666f72206e6f6e657860008201527f697374656e7420746f6b656e0000000000000000000000000000000000000000602082015250565b7f4552433732314d657461646174613a2055524920736574206f66206e6f6e657860008201527f697374656e7420746f6b656e0000000000000000000000000000000000000000602082015250565b7f4552433732314d657461646174613a2055524920717565727920666f72206e6f60008201527f6e6578697374656e7420746f6b656e0000000000000000000000000000000000602082015250565b7f4552433732313a20617070726f76616c20746f2063757272656e74206f776e6560008201527f7200000000000000000000000000000000000000000000000000000000000000602082015250565b7f4552433732313a207472616e736665722063616c6c6572206973206e6f74206f60008201527f776e6572206e6f7220617070726f766564000000000000000000000000000000602082015250565b61279d81612151565b81146127a857600080fd5b50565b6127b481612163565b81146127bf57600080fd5b50565b6127cb8161216f565b81146127d657600080fd5b50565b6127e2816121bb565b81146127ed57600080fd5b5056fea264697066735822122018d10d6f593e06c58d67d7fa321662ab4b1588abe10e8d181b233e90de86617764736f6c63430008070033",
  "devdoc": {
    "kind": "dev",
    "methods": {
      "approve(address,uint256)": {
        "details": "See {IERC721-approve}."
      },
      "balanceOf(address)": {
        "details": "See {IERC721-balanceOf}."
      },
      "getApproved(uint256)": {
        "details": "See {IERC721-getApproved}."
      },
      "isApprovedForAll(address,address)": {
        "details": "See {IERC721-isApprovedForAll}."
      },
      "name()": {
        "details": "See {IERC721Metadata-name}."
      },
      "ownerOf(uint256)": {
        "details": "See {IERC721-ownerOf}."
      },
      "safeTransferFrom(address,address,uint256)": {
        "details": "See {IERC721-safeTransferFrom}."
      },
      "safeTransferFrom(address,address,uint256,bytes)": {
        "details": "See {IERC721-safeTransferFrom}."
      },
      "setApprovalForAll(address,bool)": {
        "details": "See {IERC721-setApprovalForAll}."
      },
      "supportsInterface(bytes4)": {
        "details": "See {IERC165-supportsInterface}."
      },
      "symbol()": {
        "details": "See {IERC721Metadata-symbol}."
      },
      "tokenURI(uint256)": {
        "details": "See {IERC721Metadata-tokenURI}."
      },
      "transferFrom(address,address,uint256)": {
        "details": "See {IERC721-transferFrom}."
      }
    },
    "version": 1
  },
  "userdoc": {
    "kind": "user",
    "methods": {},
    "version": 1
  },
  "storageLayout": {
    "storage": [
      {
        "astId": 25,
        "contract": "contracts/test/BasicNft.sol:BasicNft",
        "label": "_name",
        "offset": 0,
        "slot": "0",
        "type": "t_string_storage"
      },
      {
        "astId": 27,
        "contract": "contracts/test/BasicNft.sol:BasicNft",
        "label": "_symbol",
        "offset": 0,
        "slot": "1",
        "type": "t_string_storage"
      },
      {
        "astId": 31,
        "contract": "contracts/test/BasicNft.sol:BasicNft",
        "label": "_owners",
        "offset": 0,
        "slot": "2",
        "type": "t_mapping(t_uint256,t_address)"
      },
      {
        "astId": 35,
        "contract": "contracts/test/BasicNft.sol:BasicNft",
        "label": "_balances",
        "offset": 0,
        "slot": "3",
        "type": "t_mapping(t_address,t_uint256)"
      },
      {
        "astId": 39,
        "contract": "contracts/test/BasicNft.sol:BasicNft",
        "label": "_tokenApprovals",
        "offset": 0,
        "slot": "4",
        "type": "t_mapping(t_uint256,t_address)"
      },
      {
        "astId": 45,
        "contract": "contracts/test/BasicNft.sol:BasicNft",
        "label": "_operatorApprovals",
        "offset": 0,
        "slot": "5",
        "type": "t_mapping(t_address,t_mapping(t_address,t_bool))"
      },
      {
        "astId": 1589,
        "contract": "contracts/test/BasicNft.sol:BasicNft",
        "label": "s_tokenCounter",
        "offset": 0,
        "slot": "6",
        "type": "t_uint256"
      },
      {
        "astId": 1593,
        "contract": "contracts/test/BasicNft.sol:BasicNft",
        "label": "_tokenURIs",
        "offset": 0,
        "slot": "7",
        "type": "t_mapping(t_uint256,t_string_storage)"
      }
    ],
    "types": {
      "t_address": {
        "encoding": "inplace",
        "label": "address",
        "numberOfBytes": "20"
      },
      "t_bool": {
        "encoding": "inplace",
        "label": "bool",
        "numberOfBytes": "1"
      },
      "t_mapping(t_address,t_bool)": {
        "encoding": "mapping",
        "key": "t_address",
        "label": "mapping(address => bool)",
        "numberOfBytes": "32",
        "value": "t_bool"
      },
      "t_mapping(t_address,t_mapping(t_address,t_bool))": {
        "encoding": "mapping",
        "key": "t_address",
        "label": "mapping(address => mapping(address => bool))",
        "numberOfBytes": "32",
        "value": "t_mapping(t_address,t_bool)"
      },
      "t_mapping(t_address,t_uint256)": {
        "encoding": "mapping",
        "key": "t_address",
        "label": "mapping(address => uint256)",
        "numberOfBytes": "32",
        "value": "t_uint256"
      },
      "t_mapping(t_uint256,t_address)": {
        "encoding": "mapping",
        "key": "t_uint256",
        "label": "mapping(uint256 => address)",
        "numberOfBytes": "32",
        "value": "t_address"
      },
      "t_mapping(t_uint256,t_string_storage)": {
        "encoding": "mapping",
        "key": "t_uint256",
        "label": "mapping(uint256 => string)",
        "numberOfBytes": "32",
        "value": "t_string_storage"
      },
      "t_string_storage": {
        "encoding": "bytes",
        "label": "string",
        "numberOfBytes": "32"
      },
      "t_uint256": {
        "encoding": "inplace",
        "label": "uint256",
        "numberOfBytes": "32"
      }
    }
  }
}