{
  "address": "0xCf7Ed3AccA5a467e9e704C703E8D87F634fB0Fc9",
  "abi": [
    {
      "inputs": [],
      "name": "NoProceeds",
      "type": "error"
    },
    {
      "anonymous": false,
      "inputs": [
        {
          "indexed": false,
          "internalType": "string",
          "name": "name",
          "type": "string"
        },
        {
          "indexed": false,
          "internalType": "string",
          "name": "description",
          "type": "string"
        },
        {
          "indexed": false,
          "internalType": "uint256",
          "name": "minimumEngagementRate",
          "type": "uint256"
        },
        {
          "indexed": false,
          "internalType": "uint256",
          "name": "budget",
          "type": "uint256"
        },
        {
          "indexed": false,
          "internalType": "address",
          "name": "company",
          "type": "address"
        }
      ],
      "name": "CampaignCreated",
      "type": "event"
    },
    {
      "anonymous": false,
      "inputs": [
        {
          "indexed": false,
          "internalType": "uint256",
          "name": "id",
          "type": "uint256"
        },
        {
          "indexed": false,
          "internalType": "uint256",
          "name": "budget",
          "type": "uint256"
        }
      ],
      "name": "CampaignUpdated",
      "type": "event"
    },
    {
      "anonymous": false,
      "inputs": [
        {
          "indexed": false,
          "internalType": "uint256",
          "name": "campaignId",
          "type": "uint256"
        },
        {
          "indexed": false,
          "internalType": "address",
          "name": "influencer",
          "type": "address"
        }
      ],
      "name": "InfluencerApplied",
      "type": "event"
    },
    {
      "anonymous": false,
      "inputs": [
        {
          "indexed": false,
          "internalType": "uint256",
          "name": "campaignId",
          "type": "uint256"
        },
        {
          "indexed": false,
          "internalType": "address",
          "name": "influencer",
          "type": "address"
        }
      ],
      "name": "InfluencerApproved",
      "type": "event"
    },
    {
      "anonymous": false,
      "inputs": [
        {
          "indexed": false,
          "internalType": "uint256",
          "name": "campaignId",
          "type": "uint256"
        },
        {
          "indexed": false,
          "internalType": "address",
          "name": "influencer",
          "type": "address"
        },
        {
          "indexed": false,
          "internalType": "uint256",
          "name": "engagementRate",
          "type": "uint256"
        },
        {
          "indexed": false,
          "internalType": "uint256",
          "name": "views",
          "type": "uint256"
        },
        {
          "indexed": false,
          "internalType": "uint256",
          "name": "payment",
          "type": "uint256"
        }
      ],
      "name": "InfluencerPaid",
      "type": "event"
    },
    {
      "anonymous": false,
      "inputs": [
        {
          "indexed": false,
          "internalType": "uint256",
          "name": "campaignId",
          "type": "uint256"
        },
        {
          "indexed": false,
          "internalType": "address",
          "name": "influencer",
          "type": "address"
        }
      ],
      "name": "InfluencerRejected",
      "type": "event"
    },
    {
      "anonymous": false,
      "inputs": [
        {
          "indexed": false,
          "internalType": "uint256",
          "name": "campaignId",
          "type": "uint256"
        },
        {
          "indexed": false,
          "internalType": "address",
          "name": "influencer",
          "type": "address"
        },
        {
          "indexed": false,
          "internalType": "string",
          "name": "instagramPostId",
          "type": "string"
        }
      ],
      "name": "PostSubmitted",
      "type": "event"
    },
    {
      "anonymous": false,
      "inputs": [
        {
          "indexed": false,
          "internalType": "address",
          "name": "influencer",
          "type": "address"
        },
        {
          "indexed": false,
          "internalType": "uint256",
          "name": "avgEngagementRate",
          "type": "uint256"
        },
        {
          "indexed": false,
          "internalType": "uint256",
          "name": "numberOfCampaigns",
          "type": "uint256"
        },
        {
          "indexed": false,
          "internalType": "uint256",
          "name": "avgViews",
          "type": "uint256"
        }
      ],
      "name": "UpdatedStatistics",
      "type": "event"
    },
    {
      "anonymous": false,
      "inputs": [
        {
          "indexed": false,
          "internalType": "address",
          "name": "influencer",
          "type": "address"
        },
        {
          "indexed": false,
          "internalType": "uint256",
          "name": "proceeds",
          "type": "uint256"
        }
      ],
      "name": "withdraw",
      "type": "event"
    },
    {
      "inputs": [
        {
          "internalType": "uint256",
          "name": "_id",
          "type": "uint256"
        }
      ],
      "name": "applyToCampaign",
      "outputs": [],
      "stateMutability": "nonpayable",
      "type": "function"
    },
    {
      "inputs": [
        {
          "internalType": "uint256",
          "name": "_campaignId",
          "type": "uint256"
        },
        {
          "internalType": "address",
          "name": "_influencerId",
          "type": "address"
        }
      ],
      "name": "approveInfluencer",
      "outputs": [],
      "stateMutability": "nonpayable",
      "type": "function"
    },
    {
      "inputs": [
        {
          "internalType": "uint256",
          "name": "",
          "type": "uint256"
        }
      ],
      "name": "campaigns",
      "outputs": [
        {
          "internalType": "string",
          "name": "name",
          "type": "string"
        },
        {
          "internalType": "string",
          "name": "description",
          "type": "string"
        },
        {
          "internalType": "uint256",
          "name": "minimumEngagementRate",
          "type": "uint256"
        },
        {
          "internalType": "uint256",
          "name": "budget",
          "type": "uint256"
        },
        {
          "internalType": "address payable",
          "name": "company",
          "type": "address"
        },
        {
          "internalType": "bool",
          "name": "isActive",
          "type": "bool"
        }
      ],
      "stateMutability": "view",
      "type": "function"
    },
    {
      "inputs": [
        {
          "internalType": "string",
          "name": "_name",
          "type": "string"
        },
        {
          "internalType": "string",
          "name": "_description",
          "type": "string"
        },
        {
          "internalType": "uint256",
          "name": "_minimumEngagementRate",
          "type": "uint256"
        },
        {
          "internalType": "uint256",
          "name": "_budget",
          "type": "uint256"
        }
      ],
      "name": "createCampaign",
      "outputs": [],
      "stateMutability": "payable",
      "type": "function"
    },
    {
      "inputs": [
        {
          "internalType": "address",
          "name": "_influencer",
          "type": "address"
        },
        {
          "internalType": "uint256",
          "name": "_campaign_id",
          "type": "uint256"
        },
        {
          "internalType": "uint256",
          "name": "_engagementRate",
          "type": "uint256"
        },
        {
          "internalType": "uint256",
          "name": "_views",
          "type": "uint256"
        }
      ],
      "name": "createCampaignData",
      "outputs": [],
      "stateMutability": "nonpayable",
      "type": "function"
    },
    {
      "inputs": [],
      "name": "getAllCampaigns",
      "outputs": [
        {
          "internalType": "string[]",
          "name": "",
          "type": "string[]"
        },
        {
          "internalType": "string[]",
          "name": "",
          "type": "string[]"
        },
        {
          "internalType": "uint256[]",
          "name": "",
          "type": "uint256[]"
        },
        {
          "internalType": "uint256[]",
          "name": "",
          "type": "uint256[]"
        },
        {
          "internalType": "address[]",
          "name": "",
          "type": "address[]"
        },
        {
          "internalType": "bool[]",
          "name": "",
          "type": "bool[]"
        }
      ],
      "stateMutability": "view",
      "type": "function"
    },
    {
      "inputs": [
        {
          "internalType": "uint256",
          "name": "_id",
          "type": "uint256"
        }
      ],
      "name": "getCampaign",
      "outputs": [
        {
          "internalType": "string",
          "name": "",
          "type": "string"
        },
        {
          "internalType": "string",
          "name": "",
          "type": "string"
        },
        {
          "internalType": "uint256",
          "name": "",
          "type": "uint256"
        },
        {
          "internalType": "uint256",
          "name": "",
          "type": "uint256"
        },
        {
          "internalType": "address",
          "name": "",
          "type": "address"
        },
        {
          "internalType": "bool",
          "name": "",
          "type": "bool"
        }
      ],
      "stateMutability": "view",
      "type": "function"
    },
    {
      "inputs": [],
      "name": "getInfluencerStatistic",
      "outputs": [
        {
          "internalType": "uint256",
          "name": "",
          "type": "uint256"
        },
        {
          "internalType": "uint256",
          "name": "",
          "type": "uint256"
        },
        {
          "internalType": "uint256",
          "name": "",
          "type": "uint256"
        }
      ],
      "stateMutability": "view",
      "type": "function"
    },
    {
      "inputs": [
        {
          "internalType": "uint256",
          "name": "_avgEngagmentRate",
          "type": "uint256"
        },
        {
          "internalType": "uint256",
          "name": "_avgViews",
          "type": "uint256"
        }
      ],
      "name": "importStatistics",
      "outputs": [],
      "stateMutability": "nonpayable",
      "type": "function"
    },
    {
      "inputs": [
        {
          "internalType": "address",
          "name": "",
          "type": "address"
        },
        {
          "internalType": "uint256",
          "name": "",
          "type": "uint256"
        }
      ],
      "name": "influencerHistory",
      "outputs": [
        {
          "internalType": "uint256",
          "name": "campaignId",
          "type": "uint256"
        },
        {
          "internalType": "uint256",
          "name": "engagementRate",
          "type": "uint256"
        },
        {
          "internalType": "uint256",
          "name": "views",
          "type": "uint256"
        },
        {
          "internalType": "uint256",
          "name": "date",
          "type": "uint256"
        }
      ],
      "stateMutability": "view",
      "type": "function"
    },
    {
      "inputs": [
        {
          "internalType": "address",
          "name": "",
          "type": "address"
        }
      ],
      "name": "influencerStatistic",
      "outputs": [
        {
          "internalType": "uint256",
          "name": "avgEngagementRate",
          "type": "uint256"
        },
        {
          "internalType": "uint256",
          "name": "numberOfCampaigns",
          "type": "uint256"
        },
        {
          "internalType": "uint256",
          "name": "avgViews",
          "type": "uint256"
        }
      ],
      "stateMutability": "view",
      "type": "function"
    },
    {
      "inputs": [
        {
          "internalType": "uint256",
          "name": "_campaignId",
          "type": "uint256"
        },
        {
          "internalType": "address",
          "name": "_influencerId",
          "type": "address"
        },
        {
          "internalType": "uint256",
          "name": "_engagementRate",
          "type": "uint256"
        },
        {
          "internalType": "uint256",
          "name": "_views",
          "type": "uint256"
        }
      ],
      "name": "payInfluencer",
      "outputs": [],
      "stateMutability": "nonpayable",
      "type": "function"
    },
    {
      "inputs": [
        {
          "internalType": "uint256",
          "name": "_campaignId",
          "type": "uint256"
        },
        {
          "internalType": "address",
          "name": "_influencerId",
          "type": "address"
        }
      ],
      "name": "rejectInfluencer",
      "outputs": [],
      "stateMutability": "nonpayable",
      "type": "function"
    },
    {
      "inputs": [
        {
          "internalType": "uint256",
          "name": "_campaignId",
          "type": "uint256"
        },
        {
          "internalType": "string",
          "name": "_instagramPostID",
          "type": "string"
        }
      ],
      "name": "submitPost",
      "outputs": [],
      "stateMutability": "nonpayable",
      "type": "function"
    },
    {
      "inputs": [
        {
          "internalType": "uint256",
          "name": "_id",
          "type": "uint256"
        },
        {
          "internalType": "uint256",
          "name": "_budget",
          "type": "uint256"
        }
      ],
      "name": "updateCampaign",
      "outputs": [],
      "stateMutability": "nonpayable",
      "type": "function"
    },
    {
      "inputs": [],
      "name": "withdrawProceeds",
      "outputs": [],
      "stateMutability": "nonpayable",
      "type": "function"
    }
  ],
  "transactionHash": "0x9fccc98adc134477fe90df88d3cd9214a6398c6c74fc08d7444b367b041f8616",
  "args": [],
  "numDeployments": 1,
  "solcInputHash": "fa5d9f602ffdd8b9750135ae7c7ce79b",
  "bytecode": "0x608060405234801561001057600080fd5b5060016000819055506132bb806100286000396000f3fe6080604052600436106100f35760003560e01c8063829f51f71161008a578063b438d20311610059578063b438d2031461032b578063ec968c6714610358578063f236080214610381578063f4802253146103aa576100f3565b8063829f51f71461029f57806386cdf604146102c85780639038e693146102f8578063a318f2691461030f576100f3565b8063533e548e116100c6578063533e548e146101e25780635598f8cc1461020b5780635a9330bf1461024d5780636a44c2ca14610276576100f3565b806309649579146100f8578063141961bc1461013757806317f6c0f214610179578063342a5e47146101b9575b600080fd5b34801561010457600080fd5b5061011f600480360381019061011a91906120b6565b6103d3565b60405161012e93929190612b8e565b60405180910390f35b34801561014357600080fd5b5061015e60048036038101906101599190612229565b6103fd565b604051610170969594939291906128e6565b60405180910390f35b34801561018557600080fd5b506101a0600480360381019061019b91906120e3565b610586565b6040516101b09493929190612bc5565b60405180910390f35b3480156101c557600080fd5b506101e060048036038101906101db9190612256565b6105d3565b005b3480156101ee57600080fd5b5061020960048036038101906102049190612359565b61078a565b005b34801561021757600080fd5b50610232600480360381019061022d9190612229565b610850565b60405161024496959493929190612955565b60405180910390f35b34801561025957600080fd5b50610274600480360381019061026f9190612229565b610a67565b005b34801561028257600080fd5b5061029d60048036038101906102989190612296565b610c5b565b005b3480156102ab57600080fd5b506102c660048036038101906102c191906122fd565b610e99565b005b3480156102d457600080fd5b506102dd6110a7565b6040516102ef969594939291906127fa565b60405180910390f35b34801561030457600080fd5b5061030d6115b7565b005b6103296004803603810190610324919061218a565b611762565b005b34801561033757600080fd5b506103406119de565b60405161034f93929190612b8e565b60405180910390f35b34801561036457600080fd5b5061037f600480360381019061037a9190612123565b611a69565b005b34801561038d57600080fd5b506103a860048036038101906103a39190612359565b611c52565b005b3480156103b657600080fd5b506103d160048036038101906103cc9190612256565b611cb6565b005b60036020528060005260406000206000915090508060000154908060010154908060020154905083565b6001818154811061040d57600080fd5b906000526020600020906005020160009150905080600001805461043090612f2d565b80601f016020809104026020016040519081016040528092919081815260200182805461045c90612f2d565b80156104a95780601f1061047e576101008083540402835291602001916104a9565b820191906000526020600020905b81548152906001019060200180831161048c57829003601f168201915b5050505050908060010180546104be90612f2d565b80601f01602080910402602001604051908101604052809291908181526020018280546104ea90612f2d565b80156105375780601f1061050c57610100808354040283529160200191610537565b820191906000526020600020905b81548152906001019060200180831161051a57829003601f168201915b5050505050908060020154908060030154908060040160009054906101000a900473ffffffffffffffffffffffffffffffffffffffff16908060040160149054906101000a900460ff16905086565b600260205281600052604060002081815481106105a257600080fd5b9060005260206000209060040201600091509150508060000154908060010154908060020154908060030154905084565b6000600183815481106105e9576105e8613066565b5b906000526020600020906005020190503373ffffffffffffffffffffffffffffffffffffffff168160040160009054906101000a900473ffffffffffffffffffffffffffffffffffffffff1673ffffffffffffffffffffffffffffffffffffffff161461068b576040517f08c379a000000000000000000000000000000000000000000000000000000000815260040161068290612a14565b60405180910390fd5b600115158160040160149054906101000a900460ff161515146106e3576040517f08c379a00000000000000000000000000000000000000000000000000000000081526004016106da90612a54565b60405180910390fd5b60016006600085815260200190815260200160002060008473ffffffffffffffffffffffffffffffffffffffff1673ffffffffffffffffffffffffffffffffffffffff16815260200190815260200160002060006101000a81548160ff0219169083151502179055507f012cd70c6a967010d0d2fc2c4411b9dcff3903dd3d09ead6ee1543ae6ee2254d838360405161077d929190612ad4565b60405180910390a1505050565b6000600183815481106107a05761079f613066565b5b906000526020600020906005020190503373ffffffffffffffffffffffffffffffffffffffff168160040160009054906101000a900473ffffffffffffffffffffffffffffffffffffffff1673ffffffffffffffffffffffffffffffffffffffff1614610842576040517f08c379a000000000000000000000000000000000000000000000000000000000815260040161083990612a14565b60405180910390fd5b818160030181905550505050565b60608060008060008060006001888154811061086f5761086e613066565b5b90600052602060002090600502016040518060c001604052908160008201805461089890612f2d565b80601f01602080910402602001604051908101604052809291908181526020018280546108c490612f2d565b80156109115780601f106108e657610100808354040283529160200191610911565b820191906000526020600020905b8154815290600101906020018083116108f457829003601f168201915b5050505050815260200160018201805461092a90612f2d565b80601f016020809104026020016040519081016040528092919081815260200182805461095690612f2d565b80156109a35780601f10610978576101008083540402835291602001916109a3565b820191906000526020600020905b81548152906001019060200180831161098657829003601f168201915b5050505050815260200160028201548152602001600382015481526020016004820160009054906101000a900473ffffffffffffffffffffffffffffffffffffffff1673ffffffffffffffffffffffffffffffffffffffff1673ffffffffffffffffffffffffffffffffffffffff1681526020016004820160149054906101000a900460ff1615151515815250509050806000015181602001518260400151836060015184608001518560a001519650965096509650965096505091939550919395565b600060018281548110610a7d57610a7c613066565b5b90600052602060002090600502019050600115158160040160149054906101000a900460ff16151514610ae5576040517f08c379a0000000000000000000000000000000000000000000000000000000008152600401610adc90612a54565b60405180910390fd5b6000816003015411610b2c576040517f08c379a0000000000000000000000000000000000000000000000000000000008152600401610b2390612a74565b60405180910390fd5b8060020154600360003373ffffffffffffffffffffffffffffffffffffffff1673ffffffffffffffffffffffffffffffffffffffff168152602001908152602001600020600001541015610bb5576040517f08c379a0000000000000000000000000000000000000000000000000000000008152600401610bac906129f4565b60405180910390fd5b60016004600084815260200190815260200160002060003373ffffffffffffffffffffffffffffffffffffffff1673ffffffffffffffffffffffffffffffffffffffff16815260200190815260200160002060006101000a81548160ff0219169083151502179055507f3435ab5e9bc04ae33d3e131af1f3735fb48646c0accba03b39cc72d711e059bd8233604051610c4f929190612ad4565b60405180910390a15050565b600060018581548110610c7157610c70613066565b5b90600052602060002090600502019050600115158160040160149054906101000a900460ff16151514610cd9576040517f08c379a0000000000000000000000000000000000000000000000000000000008152600401610cd090612a54565b60405180910390fd5b6000816003015411610d20576040517f08c379a0000000000000000000000000000000000000000000000000000000008152600401610d1790612a74565b60405180910390fd5b600115156004600087815260200190815260200160002060008673ffffffffffffffffffffffffffffffffffffffff1673ffffffffffffffffffffffffffffffffffffffff16815260200190815260200160002060009054906101000a900460ff16151514610dc4576040517f08c379a0000000000000000000000000000000000000000000000000000000008152600401610dbb90612ab4565b60405180910390fd5b60006064848360030154610dd89190612e03565b610de29190612dd2565b9050808260030154610df49190612e5d565b826003018190555080600860008773ffffffffffffffffffffffffffffffffffffffff1673ffffffffffffffffffffffffffffffffffffffff1681526020019081526020016000206000828254610e4b9190612d7c565b925050819055507f447c6afc0e207315605c2a0d45f45b9538f2ec53bda0016a73971bf0a9950d6b8686868685604051610e89959493929190612b3b565b60405180910390a1505050505050565b600060018381548110610eaf57610eae613066565b5b90600052602060002090600502019050600115158160040160149054906101000a900460ff16151514610f17576040517f08c379a0000000000000000000000000000000000000000000000000000000008152600401610f0e90612a54565b60405180910390fd5b6000816003015411610f5e576040517f08c379a0000000000000000000000000000000000000000000000000000000008152600401610f5590612a74565b60405180910390fd5b600115156005600085815260200190815260200160002060003373ffffffffffffffffffffffffffffffffffffffff1673ffffffffffffffffffffffffffffffffffffffff16815260200190815260200160002060009054906101000a900460ff16151514611002576040517f08c379a0000000000000000000000000000000000000000000000000000000008152600401610ff990612ab4565b60405180910390fd5b816007600085815260200190815260200160002060003373ffffffffffffffffffffffffffffffffffffffff1673ffffffffffffffffffffffffffffffffffffffff1681526020019081526020016000209080519060200190611066929190611f79565b507f80170991229f531e5b28e31c3a2e55cd1fa077ccf9d6af8fdc85142983f9a81c83338460405161109a93929190612afd565b60405180910390a1505050565b6060806060806060806000600180549050905060008167ffffffffffffffff8111156110d6576110d5613095565b5b60405190808252806020026020018201604052801561110957816020015b60608152602001906001900390816110f45790505b50905060008267ffffffffffffffff81111561112857611127613095565b5b60405190808252806020026020018201604052801561115b57816020015b60608152602001906001900390816111465790505b50905060008367ffffffffffffffff81111561117a57611179613095565b5b6040519080825280602002602001820160405280156111a85781602001602082028036833780820191505090505b50905060008467ffffffffffffffff8111156111c7576111c6613095565b5b6040519080825280602002602001820160405280156111f55781602001602082028036833780820191505090505b50905060008567ffffffffffffffff81111561121457611213613095565b5b6040519080825280602002602001820160405280156112425781602001602082028036833780820191505090505b50905060008667ffffffffffffffff81111561126157611260613095565b5b60405190808252806020026020018201604052801561128f5781602001602082028036833780820191505090505b50905060005b87811015611595576000600182815481106112b3576112b2613066565b5b90600052602060002090600502016040518060c00160405290816000820180546112dc90612f2d565b80601f016020809104026020016040519081016040528092919081815260200182805461130890612f2d565b80156113555780601f1061132a57610100808354040283529160200191611355565b820191906000526020600020905b81548152906001019060200180831161133857829003601f168201915b5050505050815260200160018201805461136e90612f2d565b80601f016020809104026020016040519081016040528092919081815260200182805461139a90612f2d565b80156113e75780601f106113bc576101008083540402835291602001916113e7565b820191906000526020600020905b8154815290600101906020018083116113ca57829003601f168201915b5050505050815260200160028201548152602001600382015481526020016004820160009054906101000a900473ffffffffffffffffffffffffffffffffffffffff1673ffffffffffffffffffffffffffffffffffffffff1673ffffffffffffffffffffffffffffffffffffffff1681526020016004820160149054906101000a900460ff1615151515815250509050806000015188838151811061148f5761148e613066565b5b602002602001018190525080602001518783815181106114b2576114b1613066565b5b602002602001018190525080604001518683815181106114d5576114d4613066565b5b60200260200101818152505080606001518583815181106114f9576114f8613066565b5b602002602001018181525050806080015184838151811061151d5761151c613066565b5b602002602001019073ffffffffffffffffffffffffffffffffffffffff16908173ffffffffffffffffffffffffffffffffffffffff16815250508060a0015183838151811061156f5761156e613066565b5b60200260200101901515908115158152505050808061158d90612f90565b915050611295565b508585858585859c509c509c509c509c509c5050505050505050909192939495565b6000600860003373ffffffffffffffffffffffffffffffffffffffff1673ffffffffffffffffffffffffffffffffffffffff16815260200190815260200160002054905061163a6040518060400160405280600a81526020017f70726f63656564733a200000000000000000000000000000000000000000000081525082611eb4565b60008111611674576040517fc4d8fa8700000000000000000000000000000000000000000000000000000000815260040160405180910390fd5b6000600860003373ffffffffffffffffffffffffffffffffffffffff1673ffffffffffffffffffffffffffffffffffffffff1681526020019081526020016000208190555060003373ffffffffffffffffffffffffffffffffffffffff16826040516116df90612777565b60006040518083038185875af1925050503d806000811461171c576040519150601f19603f3d011682016040523d82523d6000602084013e611721565b606091505b505090507ff3fef3a3f44f9c277339b67d54f015748bd8d6b77a985b0ab6e71126b018c34a338360405161175692919061278c565b60405180910390a15050565b60006040518060c001604052808681526020018581526020018481526020018381526020013373ffffffffffffffffffffffffffffffffffffffff168152602001600115158152509050600181908060018154018082558091505060019003906000526020600020906005020160009091909190915060008201518160000190805190602001906117f4929190611f79565b506020820151816001019080519060200190611811929190611f79565b50604082015181600201556060820151816003015560808201518160040160006101000a81548173ffffffffffffffffffffffffffffffffffffffff021916908373ffffffffffffffffffffffffffffffffffffffff16021790555060a08201518160040160146101000a81548160ff02191690831515021790555050508134146118d1576040517f08c379a00000000000000000000000000000000000000000000000000000000081526004016118c890612a94565b60405180910390fd5b813373ffffffffffffffffffffffffffffffffffffffff1631101561192b576040517f08c379a000000000000000000000000000000000000000000000000000000000815260040161192290612a34565b60405180910390fd5b60003073ffffffffffffffffffffffffffffffffffffffff168360405161195190612777565b60006040518083038185875af1925050503d806000811461198e576040519150601f19603f3d011682016040523d82523d6000602084013e611993565b606091505b505090507f0b563bae45403ee1ffc06d2baef473a2b8f5b16b1564a447a1509280592201c386868686336040516119ce959493929190612885565b60405180910390a1505050505050565b600080600080600360003373ffffffffffffffffffffffffffffffffffffffff1673ffffffffffffffffffffffffffffffffffffffff1681526020019081526020016000206040518060600160405290816000820154815260200160018201548152602001600282015481525050905080600001518160200151826040015193509350935050909192565b60006040518060800160405280858152602001848152602001838152602001428152509050600260008673ffffffffffffffffffffffffffffffffffffffff1673ffffffffffffffffffffffffffffffffffffffff1681526020019081526020016000208190806001815401808255809150506001900390600052602060002090600402016000909190919091506000820151816000015560208201518160010155604082015181600201556060820151816003015550506000600360008773ffffffffffffffffffffffffffffffffffffffff1673ffffffffffffffffffffffffffffffffffffffff168152602001908152602001600020905060018160010154611b759190612d7c565b8482600101548360000154611b8a9190612e03565b611b949190612d7c565b611b9e9190612dd2565b816000018190555060018160010154611bb79190612d7c565b816001018190555060018160010154611bd09190612d7c565b8382600101548360020154611be59190612e03565b611bef9190612d7c565b611bf99190612dd2565b81600201819055507f0f2bd7ddfe6548d1b90a96ee98d02417e20a5d40b060f6687e6548d8626b157286826000015483600101548460020154604051611c4294939291906127b5565b60405180910390a1505050505050565b6000600360003373ffffffffffffffffffffffffffffffffffffffff1673ffffffffffffffffffffffffffffffffffffffff168152602001908152602001600020905082816000018190555060008160010181905550818160020181905550505050565b600060018381548110611ccc57611ccb613066565b5b906000526020600020906005020190503373ffffffffffffffffffffffffffffffffffffffff168160040160009054906101000a900473ffffffffffffffffffffffffffffffffffffffff1673ffffffffffffffffffffffffffffffffffffffff1614611d6e576040517f08c379a0000000000000000000000000000000000000000000000000000000008152600401611d6590612a14565b60405180910390fd5b600115158160040160149054906101000a900460ff16151514611dc6576040517f08c379a0000000000000000000000000000000000000000000000000000000008152600401611dbd90612a54565b60405180910390fd5b6000816003015411611e0d576040517f08c379a0000000000000000000000000000000000000000000000000000000008152600401611e0490612a74565b60405180910390fd5b60016005600085815260200190815260200160002060008473ffffffffffffffffffffffffffffffffffffffff1673ffffffffffffffffffffffffffffffffffffffff16815260200190815260200160002060006101000a81548160ff0219169083151502179055507fa1f2d7ae8a4878ec0fa9b9c1006885f01c62f5417b8a6d03bc150913ebe24e388383604051611ea7929190612ad4565b60405180910390a1505050565b611f4c8282604051602401611eca9291906129c4565b6040516020818303038152906040527f9710a9d0000000000000000000000000000000000000000000000000000000007bffffffffffffffffffffffffffffffffffffffffffffffffffffffff19166020820180517bffffffffffffffffffffffffffffffffffffffffffffffffffffffff8381831617835250505050611f50565b5050565b60008151905060006a636f6e736f6c652e6c6f679050602083016000808483855afa5050505050565b828054611f8590612f2d565b90600052602060002090601f016020900481019282611fa75760008555611fee565b82601f10611fc057805160ff1916838001178555611fee565b82800160010185558215611fee579182015b82811115611fed578251825591602001919060010190611fd2565b5b509050611ffb9190611fff565b5090565b5b80821115612018576000816000905550600101612000565b5090565b600061202f61202a84612c2f565b612c0a565b90508281526020810184848401111561204b5761204a6130c9565b5b612056848285612eeb565b509392505050565b60008135905061206d81613257565b92915050565b600082601f830112612088576120876130c4565b5b813561209884826020860161201c565b91505092915050565b6000813590506120b08161326e565b92915050565b6000602082840312156120cc576120cb6130d3565b5b60006120da8482850161205e565b91505092915050565b600080604083850312156120fa576120f96130d3565b5b60006121088582860161205e565b9250506020612119858286016120a1565b9150509250929050565b6000806000806080858703121561213d5761213c6130d3565b5b600061214b8782880161205e565b945050602061215c878288016120a1565b935050604061216d878288016120a1565b925050606061217e878288016120a1565b91505092959194509250565b600080600080608085870312156121a4576121a36130d3565b5b600085013567ffffffffffffffff8111156121c2576121c16130ce565b5b6121ce87828801612073565b945050602085013567ffffffffffffffff8111156121ef576121ee6130ce565b5b6121fb87828801612073565b935050604061220c878288016120a1565b925050606061221d878288016120a1565b91505092959194509250565b60006020828403121561223f5761223e6130d3565b5b600061224d848285016120a1565b91505092915050565b6000806040838503121561226d5761226c6130d3565b5b600061227b858286016120a1565b925050602061228c8582860161205e565b9150509250929050565b600080600080608085870312156122b0576122af6130d3565b5b60006122be878288016120a1565b94505060206122cf8782880161205e565b93505060406122e0878288016120a1565b92505060606122f1878288016120a1565b91505092959194509250565b60008060408385031215612314576123136130d3565b5b6000612322858286016120a1565b925050602083013567ffffffffffffffff811115612343576123426130ce565b5b61234f85828601612073565b9150509250929050565b600080604083850312156123705761236f6130d3565b5b600061237e858286016120a1565b925050602061238f858286016120a1565b9150509250929050565b60006123a58383612404565b60208301905092915050565b60006123bd83836125b1565b60208301905092915050565b60006123d583836125cf565b905092915050565b60006123e98383612759565b60208301905092915050565b6123fe81612ea3565b82525050565b61240d81612e91565b82525050565b61241c81612e91565b82525050565b600061242d82612ca0565b6124378185612d0b565b935061244283612c60565b8060005b8381101561247357815161245a8882612399565b975061246583612cd7565b925050600181019050612446565b5085935050505092915050565b600061248b82612cab565b6124958185612d1c565b93506124a083612c70565b8060005b838110156124d15781516124b888826123b1565b97506124c383612ce4565b9250506001810190506124a4565b5085935050505092915050565b60006124e982612cb6565b6124f38185612d2d565b93508360208202850161250585612c80565b8060005b85811015612541578484038952815161252285826123c9565b945061252d83612cf1565b925060208a01995050600181019050612509565b50829750879550505050505092915050565b600061255e82612cc1565b6125688185612d3e565b935061257383612c90565b8060005b838110156125a457815161258b88826123dd565b975061259683612cfe565b925050600181019050612577565b5085935050505092915050565b6125ba81612eb5565b82525050565b6125c981612eb5565b82525050565b60006125da82612ccc565b6125e48185612d5a565b93506125f4818560208601612efa565b6125fd816130d8565b840191505092915050565b600061261382612ccc565b61261d8185612d6b565b935061262d818560208601612efa565b612636816130d8565b840191505092915050565b600061264e602d83612d6b565b9150612659826130e9565b604082019050919050565b6000612671601e83612d6b565b915061267c82613138565b602082019050919050565b6000612694601283612d6b565b915061269f82613161565b602082019050919050565b60006126b7601683612d6b565b91506126c28261318a565b602082019050919050565b60006126da600083612d4f565b91506126e5826131b3565b600082019050919050565b60006126fd601483612d6b565b9150612708826131b6565b602082019050919050565b6000612720602083612d6b565b915061272b826131df565b602082019050919050565b6000612743602c83612d6b565b915061274e82613208565b604082019050919050565b61276281612ee1565b82525050565b61277181612ee1565b82525050565b6000612782826126cd565b9150819050919050565b60006040820190506127a16000830185612413565b6127ae6020830184612768565b9392505050565b60006080820190506127ca6000830187612413565b6127d76020830186612768565b6127e46040830185612768565b6127f16060830184612768565b95945050505050565b600060c082019050818103600083015261281481896124de565b9050818103602083015261282881886124de565b9050818103604083015261283c8187612553565b905081810360608301526128508186612553565b905081810360808301526128648185612422565b905081810360a08301526128788184612480565b9050979650505050505050565b600060a082019050818103600083015261289f8188612608565b905081810360208301526128b38187612608565b90506128c26040830186612768565b6128cf6060830185612768565b6128dc6080830184612413565b9695505050505050565b600060c08201905081810360008301526129008189612608565b905081810360208301526129148188612608565b90506129236040830187612768565b6129306060830186612768565b61293d60808301856123f5565b61294a60a08301846125c0565b979650505050505050565b600060c082019050818103600083015261296f8189612608565b905081810360208301526129838188612608565b90506129926040830187612768565b61299f6060830186612768565b6129ac6080830185612413565b6129b960a08301846125c0565b979650505050505050565b600060408201905081810360008301526129de8185612608565b90506129ed6020830184612768565b9392505050565b60006020820190508181036000830152612a0d81612641565b9050919050565b60006020820190508181036000830152612a2d81612664565b9050919050565b60006020820190508181036000830152612a4d81612687565b9050919050565b60006020820190508181036000830152612a6d816126aa565b9050919050565b60006020820190508181036000830152612a8d816126f0565b9050919050565b60006020820190508181036000830152612aad81612713565b9050919050565b60006020820190508181036000830152612acd81612736565b9050919050565b6000604082019050612ae96000830185612768565b612af66020830184612413565b9392505050565b6000606082019050612b126000830186612768565b612b1f6020830185612413565b8181036040830152612b318184612608565b9050949350505050565b600060a082019050612b506000830188612768565b612b5d6020830187612413565b612b6a6040830186612768565b612b776060830185612768565b612b846080830184612768565b9695505050505050565b6000606082019050612ba36000830186612768565b612bb06020830185612768565b612bbd6040830184612768565b949350505050565b6000608082019050612bda6000830187612768565b612be76020830186612768565b612bf46040830185612768565b612c016060830184612768565b95945050505050565b6000612c14612c25565b9050612c208282612f5f565b919050565b6000604051905090565b600067ffffffffffffffff821115612c4a57612c49613095565b5b612c53826130d8565b9050602081019050919050565b6000819050602082019050919050565b6000819050602082019050919050565b6000819050602082019050919050565b6000819050602082019050919050565b600081519050919050565b600081519050919050565b600081519050919050565b600081519050919050565b600081519050919050565b6000602082019050919050565b6000602082019050919050565b6000602082019050919050565b6000602082019050919050565b600082825260208201905092915050565b600082825260208201905092915050565b600082825260208201905092915050565b600082825260208201905092915050565b600081905092915050565b600082825260208201905092915050565b600082825260208201905092915050565b6000612d8782612ee1565b9150612d9283612ee1565b9250827fffffffffffffffffffffffffffffffffffffffffffffffffffffffffffffffff03821115612dc757612dc6612fd9565b5b828201905092915050565b6000612ddd82612ee1565b9150612de883612ee1565b925082612df857612df7613008565b5b828204905092915050565b6000612e0e82612ee1565b9150612e1983612ee1565b9250817fffffffffffffffffffffffffffffffffffffffffffffffffffffffffffffffff0483118215151615612e5257612e51612fd9565b5b828202905092915050565b6000612e6882612ee1565b9150612e7383612ee1565b925082821015612e8657612e85612fd9565b5b828203905092915050565b6000612e9c82612ec1565b9050919050565b6000612eae82612ec1565b9050919050565b60008115159050919050565b600073ffffffffffffffffffffffffffffffffffffffff82169050919050565b6000819050919050565b82818337600083830152505050565b60005b83811015612f18578082015181840152602081019050612efd565b83811115612f27576000848401525b50505050565b60006002820490506001821680612f4557607f821691505b60208210811415612f5957612f58613037565b5b50919050565b612f68826130d8565b810181811067ffffffffffffffff82111715612f8757612f86613095565b5b80604052505050565b6000612f9b82612ee1565b91507fffffffffffffffffffffffffffffffffffffffffffffffffffffffffffffffff821415612fce57612fcd612fd9565b5b600182019050919050565b7f4e487b7100000000000000000000000000000000000000000000000000000000600052601160045260246000fd5b7f4e487b7100000000000000000000000000000000000000000000000000000000600052601260045260246000fd5b7f4e487b7100000000000000000000000000000000000000000000000000000000600052602260045260246000fd5b7f4e487b7100000000000000000000000000000000000000000000000000000000600052603260045260246000fd5b7f4e487b7100000000000000000000000000000000000000000000000000000000600052604160045260246000fd5b600080fd5b600080fd5b600080fd5b600080fd5b6000601f19601f8301169050919050565b7f496e666c75656e63657220656e676167656d656e742072617465206973206e6f60008201527f7420676f6f6420656e6f75676800000000000000000000000000000000000000602082015250565b7f4e6f7420746865206f776e6572206f6620746869732063616d706169676e0000600082015250565b7f4e6f7420656e6f7567682062616c616e63650000000000000000000000000000600082015250565b7f43616d706169676e206973206e6f742061637469766500000000000000000000600082015250565b50565b7f43616d706169676e206275646765742069732030000000000000000000000000600082015250565b7f427564676574206973206e6f7420657175616c20746f206d73672e76616c7565600082015250565b7f496e666c75656e636572206973206e6f7420617070726f76656420666f72207460008201527f6869732063616d706169676e0000000000000000000000000000000000000000602082015250565b61326081612e91565b811461326b57600080fd5b50565b61327781612ee1565b811461328257600080fd5b5056fea264697066735822122027e678810af268355cab7bb943d9a6c7a831dec637264f57f11c81c8e18c963464736f6c63430008070033",
  "devdoc": {
    "kind": "dev",
    "methods": {},
    "version": 1
  },
  "userdoc": {
    "kind": "user",
    "methods": {},
    "version": 1
  },
  "storageLayout": {
    "storage": [
      {
        "astId": 10,
        "contract": "contracts/InfluencerMarketing.sol:InfluencerMarketing",
        "label": "_status",
        "offset": 0,
        "slot": "0",
        "type": "t_uint256"
      },
      {
        "astId": 357,
        "contract": "contracts/InfluencerMarketing.sol:InfluencerMarketing",
        "label": "campaigns",
        "offset": 0,
        "slot": "1",
        "type": "t_array(t_struct(Campaign)353_storage)dyn_storage"
      },
      {
        "astId": 363,
        "contract": "contracts/InfluencerMarketing.sol:InfluencerMarketing",
        "label": "influencerHistory",
        "offset": 0,
        "slot": "2",
        "type": "t_mapping(t_address,t_array(t_struct(InfluencerHistory)326_storage)dyn_storage)"
      },
      {
        "astId": 368,
        "contract": "contracts/InfluencerMarketing.sol:InfluencerMarketing",
        "label": "influencerStatistic",
        "offset": 0,
        "slot": "3",
        "type": "t_mapping(t_address,t_struct(InfluencerStatistic)333_storage)"
      },
      {
        "astId": 374,
        "contract": "contracts/InfluencerMarketing.sol:InfluencerMarketing",
        "label": "influencersApplied",
        "offset": 0,
        "slot": "4",
        "type": "t_mapping(t_uint256,t_mapping(t_address,t_bool))"
      },
      {
        "astId": 380,
        "contract": "contracts/InfluencerMarketing.sol:InfluencerMarketing",
        "label": "influencersApproved",
        "offset": 0,
        "slot": "5",
        "type": "t_mapping(t_uint256,t_mapping(t_address,t_bool))"
      },
      {
        "astId": 386,
        "contract": "contracts/InfluencerMarketing.sol:InfluencerMarketing",
        "label": "influencersRejected",
        "offset": 0,
        "slot": "6",
        "type": "t_mapping(t_uint256,t_mapping(t_address,t_bool))"
      },
      {
        "astId": 392,
        "contract": "contracts/InfluencerMarketing.sol:InfluencerMarketing",
        "label": "influencersSubmittedPosts",
        "offset": 0,
        "slot": "7",
        "type": "t_mapping(t_uint256,t_mapping(t_address,t_string_storage))"
      },
      {
        "astId": 396,
        "contract": "contracts/InfluencerMarketing.sol:InfluencerMarketing",
        "label": "s_proceeds",
        "offset": 0,
        "slot": "8",
        "type": "t_mapping(t_address,t_uint256)"
      }
    ],
    "types": {
      "t_address": {
        "encoding": "inplace",
        "label": "address",
        "numberOfBytes": "20"
      },
      "t_address_payable": {
        "encoding": "inplace",
        "label": "address payable",
        "numberOfBytes": "20"
      },
      "t_array(t_struct(Campaign)353_storage)dyn_storage": {
        "base": "t_struct(Campaign)353_storage",
        "encoding": "dynamic_array",
        "label": "struct InfluencerMarketing.Campaign[]",
        "numberOfBytes": "32"
      },
      "t_array(t_struct(InfluencerHistory)326_storage)dyn_storage": {
        "base": "t_struct(InfluencerHistory)326_storage",
        "encoding": "dynamic_array",
        "label": "struct InfluencerMarketing.InfluencerHistory[]",
        "numberOfBytes": "32"
      },
      "t_bool": {
        "encoding": "inplace",
        "label": "bool",
        "numberOfBytes": "1"
      },
      "t_mapping(t_address,t_array(t_struct(InfluencerHistory)326_storage)dyn_storage)": {
        "encoding": "mapping",
        "key": "t_address",
        "label": "mapping(address => struct InfluencerMarketing.InfluencerHistory[])",
        "numberOfBytes": "32",
        "value": "t_array(t_struct(InfluencerHistory)326_storage)dyn_storage"
      },
      "t_mapping(t_address,t_bool)": {
        "encoding": "mapping",
        "key": "t_address",
        "label": "mapping(address => bool)",
        "numberOfBytes": "32",
        "value": "t_bool"
      },
      "t_mapping(t_address,t_string_storage)": {
        "encoding": "mapping",
        "key": "t_address",
        "label": "mapping(address => string)",
        "numberOfBytes": "32",
        "value": "t_string_storage"
      },
      "t_mapping(t_address,t_struct(InfluencerStatistic)333_storage)": {
        "encoding": "mapping",
        "key": "t_address",
        "label": "mapping(address => struct InfluencerMarketing.InfluencerStatistic)",
        "numberOfBytes": "32",
        "value": "t_struct(InfluencerStatistic)333_storage"
      },
      "t_mapping(t_address,t_uint256)": {
        "encoding": "mapping",
        "key": "t_address",
        "label": "mapping(address => uint256)",
        "numberOfBytes": "32",
        "value": "t_uint256"
      },
      "t_mapping(t_uint256,t_mapping(t_address,t_bool))": {
        "encoding": "mapping",
        "key": "t_uint256",
        "label": "mapping(uint256 => mapping(address => bool))",
        "numberOfBytes": "32",
        "value": "t_mapping(t_address,t_bool)"
      },
      "t_mapping(t_uint256,t_mapping(t_address,t_string_storage))": {
        "encoding": "mapping",
        "key": "t_uint256",
        "label": "mapping(uint256 => mapping(address => string))",
        "numberOfBytes": "32",
        "value": "t_mapping(t_address,t_string_storage)"
      },
      "t_string_storage": {
        "encoding": "bytes",
        "label": "string",
        "numberOfBytes": "32"
      },
      "t_struct(Campaign)353_storage": {
        "encoding": "inplace",
        "label": "struct InfluencerMarketing.Campaign",
        "members": [
          {
            "astId": 342,
            "contract": "contracts/InfluencerMarketing.sol:InfluencerMarketing",
            "label": "name",
            "offset": 0,
            "slot": "0",
            "type": "t_string_storage"
          },
          {
            "astId": 344,
            "contract": "contracts/InfluencerMarketing.sol:InfluencerMarketing",
            "label": "description",
            "offset": 0,
            "slot": "1",
            "type": "t_string_storage"
          },
          {
            "astId": 346,
            "contract": "contracts/InfluencerMarketing.sol:InfluencerMarketing",
            "label": "minimumEngagementRate",
            "offset": 0,
            "slot": "2",
            "type": "t_uint256"
          },
          {
            "astId": 348,
            "contract": "contracts/InfluencerMarketing.sol:InfluencerMarketing",
            "label": "budget",
            "offset": 0,
            "slot": "3",
            "type": "t_uint256"
          },
          {
            "astId": 350,
            "contract": "contracts/InfluencerMarketing.sol:InfluencerMarketing",
            "label": "company",
            "offset": 0,
            "slot": "4",
            "type": "t_address_payable"
          },
          {
            "astId": 352,
            "contract": "contracts/InfluencerMarketing.sol:InfluencerMarketing",
            "label": "isActive",
            "offset": 20,
            "slot": "4",
            "type": "t_bool"
          }
        ],
        "numberOfBytes": "160"
      },
      "t_struct(InfluencerHistory)326_storage": {
        "encoding": "inplace",
        "label": "struct InfluencerMarketing.InfluencerHistory",
        "members": [
          {
            "astId": 319,
            "contract": "contracts/InfluencerMarketing.sol:InfluencerMarketing",
            "label": "campaignId",
            "offset": 0,
            "slot": "0",
            "type": "t_uint256"
          },
          {
            "astId": 321,
            "contract": "contracts/InfluencerMarketing.sol:InfluencerMarketing",
            "label": "engagementRate",
            "offset": 0,
            "slot": "1",
            "type": "t_uint256"
          },
          {
            "astId": 323,
            "contract": "contracts/InfluencerMarketing.sol:InfluencerMarketing",
            "label": "views",
            "offset": 0,
            "slot": "2",
            "type": "t_uint256"
          },
          {
            "astId": 325,
            "contract": "contracts/InfluencerMarketing.sol:InfluencerMarketing",
            "label": "date",
            "offset": 0,
            "slot": "3",
            "type": "t_uint256"
          }
        ],
        "numberOfBytes": "128"
      },
      "t_struct(InfluencerStatistic)333_storage": {
        "encoding": "inplace",
        "label": "struct InfluencerMarketing.InfluencerStatistic",
        "members": [
          {
            "astId": 328,
            "contract": "contracts/InfluencerMarketing.sol:InfluencerMarketing",
            "label": "avgEngagementRate",
            "offset": 0,
            "slot": "0",
            "type": "t_uint256"
          },
          {
            "astId": 330,
            "contract": "contracts/InfluencerMarketing.sol:InfluencerMarketing",
            "label": "numberOfCampaigns",
            "offset": 0,
            "slot": "1",
            "type": "t_uint256"
          },
          {
            "astId": 332,
            "contract": "contracts/InfluencerMarketing.sol:InfluencerMarketing",
            "label": "avgViews",
            "offset": 0,
            "slot": "2",
            "type": "t_uint256"
          }
        ],
        "numberOfBytes": "96"
      },
      "t_uint256": {
        "encoding": "inplace",
        "label": "uint256",
        "numberOfBytes": "32"
      }
    }
  }
}